{
  "contractName": "Crowdsensing",
  "abi": [
    {
      "inputs": [],
      "stateMutability": "nonpayable",
      "type": "constructor"
    },
    {
      "anonymous": false,
      "inputs": [
        {
          "indexed": false,
          "internalType": "string",
          "name": "encryptedSum",
          "type": "string"
        }
      ],
      "name": "AggregationComplete",
      "type": "event"
    },
    {
      "anonymous": false,
      "inputs": [
        {
          "indexed": true,
          "internalType": "address",
          "name": "provider",
          "type": "address"
        },
        {
          "indexed": false,
          "internalType": "string",
          "name": "encryptedData",
          "type": "string"
        }
      ],
      "name": "DataSubmitted",
      "type": "event"
    },
    {
      "inputs": [],
      "name": "dataCount",
      "outputs": [
        {
          "internalType": "uint256",
          "name": "",
          "type": "uint256"
        }
      ],
      "stateMutability": "view",
      "type": "function",
      "constant": true
    },
    {
      "inputs": [
        {
          "internalType": "address",
          "name": "",
          "type": "address"
        }
      ],
      "name": "dataProviders",
      "outputs": [
        {
          "internalType": "address",
          "name": "provider",
          "type": "address"
        },
        {
          "internalType": "string",
          "name": "encryptedData",
          "type": "string"
        },
        {
          "internalType": "bool",
          "name": "verified",
          "type": "bool"
        }
      ],
      "stateMutability": "view",
      "type": "function",
      "constant": true
    },
    {
      "inputs": [],
      "name": "encryptedSum",
      "outputs": [
        {
          "internalType": "string",
          "name": "",
          "type": "string"
        }
      ],
      "stateMutability": "view",
      "type": "function",
      "constant": true
    },
    {
      "inputs": [],
      "name": "owner",
      "outputs": [
        {
          "internalType": "address",
          "name": "",
          "type": "address"
        }
      ],
      "stateMutability": "view",
      "type": "function",
      "constant": true
    },
    {
      "inputs": [
        {
          "internalType": "address",
          "name": "provider",
          "type": "address"
        }
      ],
      "name": "registerProvider",
      "outputs": [],
      "stateMutability": "nonpayable",
      "type": "function"
    },
    {
      "inputs": [
        {
          "internalType": "string",
          "name": "encryptedData",
          "type": "string"
        }
      ],
      "name": "submitData",
      "outputs": [],
      "stateMutability": "nonpayable",
      "type": "function"
    },
    {
      "inputs": [
        {
          "internalType": "address[]",
          "name": "providerAddresses",
          "type": "address[]"
        }
      ],
      "name": "aggregateEncryptedData",
      "outputs": [],
      "stateMutability": "nonpayable",
      "type": "function"
    },
    {
      "inputs": [],
      "name": "getEncryptedSum",
      "outputs": [
        {
          "internalType": "string",
          "name": "",
          "type": "string"
        }
      ],
      "stateMutability": "view",
      "type": "function",
      "constant": true
    }
  ],
  "bytecode": "0x608060405234801561000f575f80fd5b50335f806101000a81548173ffffffffffffffffffffffffffffffffffffffff021916908373ffffffffffffffffffffffffffffffffffffffff16021790555061123a8061005c5f395ff3fe608060405234801561000f575f80fd5b5060043610610086575f3560e01c80638da5cb5b116100595780638da5cb5b14610114578063934e4c4714610132578063a2aac7ab1461014e578063e096dd251461016a57610086565b80630e2600161461008a578063323998af146100a65780635da40c47146100c4578063780aac03146100e2575b5f80fd5b6100a4600480360381019061009f9190610854565b610188565b005b6100ae610312565b6040516100bb9190610909565b60405180910390f35b6100cc61039e565b6040516100d99190610941565b60405180910390f35b6100fc60048036038101906100f79190610854565b6103a4565b60405161010b93929190610983565b60405180910390f35b61011c61047b565b60405161012991906109bf565b60405180910390f35b61014c60048036038101906101479190610b18565b61049e565b005b61016860048036038101906101639190610c0f565b610615565b005b610172610759565b60405161017f9190610909565b60405180910390f35b5f8054906101000a900473ffffffffffffffffffffffffffffffffffffffff1673ffffffffffffffffffffffffffffffffffffffff163373ffffffffffffffffffffffffffffffffffffffff1614610215576040517f08c379a000000000000000000000000000000000000000000000000000000000815260040161020c90610cc6565b60405180910390fd5b60405180606001604052808273ffffffffffffffffffffffffffffffffffffffff16815260200160405180602001604052805f81525081526020015f151581525060015f8373ffffffffffffffffffffffffffffffffffffffff1673ffffffffffffffffffffffffffffffffffffffff1681526020019081526020015f205f820151815f015f6101000a81548173ffffffffffffffffffffffffffffffffffffffff021916908373ffffffffffffffffffffffffffffffffffffffff16021790555060208201518160010190816102ec9190610ede565b506040820151816002015f6101000a81548160ff02191690831515021790555090505050565b6003805461031f90610d11565b80601f016020809104026020016040519081016040528092919081815260200182805461034b90610d11565b80156103965780601f1061036d57610100808354040283529160200191610396565b820191905f5260205f20905b81548152906001019060200180831161037957829003601f168201915b505050505081565b60025481565b6001602052805f5260405f205f91509050805f015f9054906101000a900473ffffffffffffffffffffffffffffffffffffffff16908060010180546103e890610d11565b80601f016020809104026020016040519081016040528092919081815260200182805461041490610d11565b801561045f5780601f106104365761010080835404028352916020019161045f565b820191905f5260205f20905b81548152906001019060200180831161044257829003601f168201915b505050505090806002015f9054906101000a900460ff16905083565b5f8054906101000a900473ffffffffffffffffffffffffffffffffffffffff1681565b5f8054906101000a900473ffffffffffffffffffffffffffffffffffffffff1673ffffffffffffffffffffffffffffffffffffffff163373ffffffffffffffffffffffffffffffffffffffff161461052b576040517f08c379a000000000000000000000000000000000000000000000000000000000815260040161052290610cc6565b60405180910390fd5b5f5b81518110156105d9575f82828151811061054a57610549610fad565b5b60200260200101519050600360015f8373ffffffffffffffffffffffffffffffffffffffff1673ffffffffffffffffffffffffffffffffffffffff1681526020019081526020015f206001016040516020016105a7929190611064565b604051602081830303815290604052600390816105c49190610ede565b505080806105d1906110b4565b91505061052d565b507f87be4345c09fc044b8fd45b4e43cbac9444ca418fd7995fd1b49b41115bde6b5600360405161060a919061117c565b60405180910390a150565b5f60015f3373ffffffffffffffffffffffffffffffffffffffff1673ffffffffffffffffffffffffffffffffffffffff1681526020019081526020015f20600101805461066190610d11565b9050146106a3576040517f08c379a000000000000000000000000000000000000000000000000000000000815260040161069a906111e6565b60405180910390fd5b8060015f3373ffffffffffffffffffffffffffffffffffffffff1673ffffffffffffffffffffffffffffffffffffffff1681526020019081526020015f2060010190816106f09190610ede565b5060025f815480929190610703906110b4565b91905055503373ffffffffffffffffffffffffffffffffffffffff167f609f5e609ad3d82219984fd111ae09ae5bb8c677c16ca76755508d98eaf52e368260405161074e9190610909565b60405180910390a250565b60606003805461076890610d11565b80601f016020809104026020016040519081016040528092919081815260200182805461079490610d11565b80156107df5780601f106107b6576101008083540402835291602001916107df565b820191905f5260205f20905b8154815290600101906020018083116107c257829003601f168201915b5050505050905090565b5f604051905090565b5f80fd5b5f80fd5b5f73ffffffffffffffffffffffffffffffffffffffff82169050919050565b5f610823826107fa565b9050919050565b61083381610819565b811461083d575f80fd5b50565b5f8135905061084e8161082a565b92915050565b5f60208284031215610869576108686107f2565b5b5f61087684828501610840565b91505092915050565b5f81519050919050565b5f82825260208201905092915050565b5f5b838110156108b657808201518184015260208101905061089b565b5f8484015250505050565b5f601f19601f8301169050919050565b5f6108db8261087f565b6108e58185610889565b93506108f5818560208601610899565b6108fe816108c1565b840191505092915050565b5f6020820190508181035f83015261092181846108d1565b905092915050565b5f819050919050565b61093b81610929565b82525050565b5f6020820190506109545f830184610932565b92915050565b61096381610819565b82525050565b5f8115159050919050565b61097d81610969565b82525050565b5f6060820190506109965f83018661095a565b81810360208301526109a881856108d1565b90506109b76040830184610974565b949350505050565b5f6020820190506109d25f83018461095a565b92915050565b5f80fd5b7f4e487b71000000000000000000000000000000000000000000000000000000005f52604160045260245ffd5b610a12826108c1565b810181811067ffffffffffffffff82111715610a3157610a306109dc565b5b80604052505050565b5f610a436107e9565b9050610a4f8282610a09565b919050565b5f67ffffffffffffffff821115610a6e57610a6d6109dc565b5b602082029050602081019050919050565b5f80fd5b5f610a95610a9084610a54565b610a3a565b90508083825260208201905060208402830185811115610ab857610ab7610a7f565b5b835b81811015610ae15780610acd8882610840565b845260208401935050602081019050610aba565b5050509392505050565b5f82601f830112610aff57610afe6109d8565b5b8135610b0f848260208601610a83565b91505092915050565b5f60208284031215610b2d57610b2c6107f2565b5b5f82013567ffffffffffffffff811115610b4a57610b496107f6565b5b610b5684828501610aeb565b91505092915050565b5f80fd5b5f67ffffffffffffffff821115610b7d57610b7c6109dc565b5b610b86826108c1565b9050602081019050919050565b828183375f83830152505050565b5f610bb3610bae84610b63565b610a3a565b905082815260208101848484011115610bcf57610bce610b5f565b5b610bda848285610b93565b509392505050565b5f82601f830112610bf657610bf56109d8565b5b8135610c06848260208601610ba1565b91505092915050565b5f60208284031215610c2457610c236107f2565b5b5f82013567ffffffffffffffff811115610c4157610c406107f6565b5b610c4d84828501610be2565b91505092915050565b7f4f6e6c79206f776e65722063616e20706572666f726d207468697320616374695f8201527f6f6e000000000000000000000000000000000000000000000000000000000000602082015250565b5f610cb0602283610889565b9150610cbb82610c56565b604082019050919050565b5f6020820190508181035f830152610cdd81610ca4565b9050919050565b7f4e487b71000000000000000000000000000000000000000000000000000000005f52602260045260245ffd5b5f6002820490506001821680610d2857607f821691505b602082108103610d3b57610d3a610ce4565b5b50919050565b5f819050815f5260205f209050919050565b5f6020601f8301049050919050565b5f82821b905092915050565b5f60088302610d9d7fffffffffffffffffffffffffffffffffffffffffffffffffffffffffffffffff82610d62565b610da78683610d62565b95508019841693508086168417925050509392505050565b5f819050919050565b5f610de2610ddd610dd884610929565b610dbf565b610929565b9050919050565b5f819050919050565b610dfb83610dc8565b610e0f610e0782610de9565b848454610d6e565b825550505050565b5f90565b610e23610e17565b610e2e818484610df2565b505050565b5b81811015610e5157610e465f82610e1b565b600181019050610e34565b5050565b601f821115610e9657610e6781610d41565b610e7084610d53565b81016020851015610e7f578190505b610e93610e8b85610d53565b830182610e33565b50505b505050565b5f82821c905092915050565b5f610eb65f1984600802610e9b565b1980831691505092915050565b5f610ece8383610ea7565b9150826002028217905092915050565b610ee78261087f565b67ffffffffffffffff811115610f0057610eff6109dc565b5b610f0a8254610d11565b610f15828285610e55565b5f60209050601f831160018114610f46575f8415610f34578287015190505b610f3e8582610ec3565b865550610fa5565b601f198416610f5486610d41565b5f5b82811015610f7b57848901518255600182019150602085019450602081019050610f56565b86831015610f985784890151610f94601f891682610ea7565b8355505b6001600288020188555050505b505050505050565b7f4e487b71000000000000000000000000000000000000000000000000000000005f52603260045260245ffd5b5f81905092915050565b5f8154610ff081610d11565b610ffa8186610fda565b9450600182165f811461101457600181146110295761105b565b60ff198316865281151582028601935061105b565b61103285610d41565b5f5b8381101561105357815481890152600182019150602081019050611034565b838801955050505b50505092915050565b5f61106f8285610fe4565b915061107b8284610fe4565b91508190509392505050565b7f4e487b71000000000000000000000000000000000000000000000000000000005f52601160045260245ffd5b5f6110be82610929565b91507fffffffffffffffffffffffffffffffffffffffffffffffffffffffffffffffff82036110f0576110ef611087565b5b600182019050919050565b5f815461110781610d11565b6111118186610889565b9450600182165f811461112b576001811461114157611173565b60ff198316865281151560200286019350611173565b61114a85610d41565b5f5b8381101561116b5781548189015260018201915060208101905061114c565b808801955050505b50505092915050565b5f6020820190508181035f83015261119481846110fb565b905092915050565b7f4461746120616c7265616479207375626d6974746564000000000000000000005f82015250565b5f6111d0601683610889565b91506111db8261119c565b602082019050919050565b5f6020820190508181035f8301526111fd816111c4565b905091905056fea2646970667358221220eddf4a44164ba37cad28ebfd0c54c35dd281e22d68951e54ffb5b69c7d47ca3464736f6c63430008140033",
  "immutableReferences": {},
  "source": "// SPDX-License-Identifier: MIT\r\npragma solidity ^0.8.0;\r\n\r\ncontract Crowdsensing {\r\n    struct DataProvider {\r\n        address provider;\r\n        string encryptedData;\r\n        bool verified;\r\n    }\r\n\r\n    address public owner;\r\n    mapping(address => DataProvider) public dataProviders;\r\n    uint public dataCount;\r\n    string public encryptedSum;\r\n\r\n    event DataSubmitted(address indexed provider, string encryptedData);\r\n    event AggregationComplete(string encryptedSum);\r\n\r\n    constructor() {\r\n        owner = msg.sender;\r\n    }\r\n\r\n    modifier onlyOwner() {\r\n        require(msg.sender == owner, \"Only owner can perform this action\");\r\n        _;\r\n    }\r\n\r\n    function registerProvider(address provider) public onlyOwner {\r\n        dataProviders[provider] = DataProvider(provider, \"\", false);\r\n    }\r\n\r\n    function submitData(string memory encryptedData) public {\r\n        require(bytes(dataProviders[msg.sender].encryptedData).length == 0, \"Data already submitted\");\r\n        dataProviders[msg.sender].encryptedData = encryptedData;\r\n        dataCount++;\r\n        emit DataSubmitted(msg.sender, encryptedData);\r\n    }\r\n\r\n    // Updated to accept an array of addresses\r\n    function aggregateEncryptedData(address[] memory providerAddresses) public onlyOwner {\r\n        for (uint i = 0; i < providerAddresses.length; i++) {\r\n            address provider = providerAddresses[i];\r\n            encryptedSum = string(abi.encodePacked(encryptedSum, dataProviders[provider].encryptedData));\r\n        }\r\n        emit AggregationComplete(encryptedSum);\r\n    }\r\n\r\n    function getEncryptedSum() public view returns (string memory) {\r\n        return encryptedSum;\r\n    }\r\n}\r\n",
  "sourcePath": "C:\\Users\\User\\Documents\\GitHub\\blockchain-crowdsensing\\contracts\\Crowdsensing.sol",
  "compiler": {
    "name": "solc",
    "version": "0.8.20+commit.a1b79de6.Emscripten.clang"
  },
  "schemaVersion": "3.4.16",
  "updatedAt": "2024-10-19T01:21:23.813Z",
  "networkType": "ethereum",
  "devdoc": {
    "kind": "dev",
    "methods": {},
    "version": 1
  },
  "userdoc": {
    "kind": "user",
    "methods": {},
    "version": 1
  }
}