{
  "contractName": "Crowdsensing",
  "abi": [
    {
      "inputs": [],
      "stateMutability": "nonpayable",
      "type": "constructor"
    },
    {
      "anonymous": false,
      "inputs": [
        {
          "indexed": false,
          "internalType": "string",
          "name": "encryptedSum",
          "type": "string"
        }
      ],
      "name": "AggregationComplete",
      "type": "event"
    },
    {
      "anonymous": false,
      "inputs": [
        {
          "indexed": true,
          "internalType": "address",
          "name": "provider",
          "type": "address"
        },
        {
          "indexed": false,
          "internalType": "string",
          "name": "encryptedData",
          "type": "string"
        }
      ],
      "name": "DataSubmitted",
      "type": "event"
    },
    {
      "inputs": [],
      "name": "dataCount",
      "outputs": [
        {
          "internalType": "uint256",
          "name": "",
          "type": "uint256"
        }
      ],
      "stateMutability": "view",
      "type": "function",
      "constant": true
    },
    {
      "inputs": [
        {
          "internalType": "address",
          "name": "",
          "type": "address"
        }
      ],
      "name": "dataProviders",
      "outputs": [
        {
          "internalType": "address",
          "name": "provider",
          "type": "address"
        },
        {
          "internalType": "string",
          "name": "encryptedData",
          "type": "string"
        },
        {
          "internalType": "bool",
          "name": "verified",
          "type": "bool"
        }
      ],
      "stateMutability": "view",
      "type": "function",
      "constant": true
    },
    {
      "inputs": [],
      "name": "encryptedSum",
      "outputs": [
        {
          "internalType": "string",
          "name": "",
          "type": "string"
        }
      ],
      "stateMutability": "view",
      "type": "function",
      "constant": true
    },
    {
      "inputs": [],
      "name": "owner",
      "outputs": [
        {
          "internalType": "address",
          "name": "",
          "type": "address"
        }
      ],
      "stateMutability": "view",
      "type": "function",
      "constant": true
    },
    {
      "inputs": [
        {
          "internalType": "address",
          "name": "provider",
          "type": "address"
        }
      ],
      "name": "registerProvider",
      "outputs": [],
      "stateMutability": "nonpayable",
      "type": "function"
    },
    {
      "inputs": [
        {
          "internalType": "string",
          "name": "encryptedData",
          "type": "string"
        }
      ],
      "name": "submitData",
      "outputs": [],
      "stateMutability": "nonpayable",
      "type": "function"
    },
    {
      "inputs": [
        {
          "internalType": "address[]",
          "name": "providerAddresses",
          "type": "address[]"
        }
      ],
      "name": "aggregateEncryptedData",
      "outputs": [],
      "stateMutability": "nonpayable",
      "type": "function"
    },
    {
      "inputs": [
        {
          "internalType": "address",
          "name": "provider",
          "type": "address"
        }
      ],
      "name": "resetProviderData",
      "outputs": [],
      "stateMutability": "nonpayable",
      "type": "function"
    },
    {
      "inputs": [],
      "name": "getEncryptedSum",
      "outputs": [
        {
          "internalType": "string",
          "name": "",
          "type": "string"
        }
      ],
      "stateMutability": "view",
      "type": "function",
      "constant": true
    }
  ],
  "bytecode": "0x608060405234801561000f575f80fd5b50335f806101000a81548173ffffffffffffffffffffffffffffffffffffffff021916908373ffffffffffffffffffffffffffffffffffffffff1602179055506116228061005c5f395ff3fe608060405234801561000f575f80fd5b5060043610610091575f3560e01c8063780aac0311610064578063780aac03146101095780638da5cb5b1461013b578063934e4c4714610159578063a2aac7ab14610175578063e096dd251461019157610091565b80630e26001614610095578063204c4929146100b1578063323998af146100cd5780635da40c47146100eb575b5f80fd5b6100af60048036038101906100aa9190610add565b6101af565b005b6100cb60048036038101906100c69190610add565b610339565b005b6100d56104ca565b6040516100e29190610b92565b60405180910390f35b6100f3610556565b6040516101009190610bca565b60405180910390f35b610123600480360381019061011e9190610add565b61055c565b60405161013293929190610c0c565b60405180910390f35b610143610633565b6040516101509190610c48565b60405180910390f35b610173600480360381019061016e9190610da1565b610656565b005b61018f600480360381019061018a9190610e98565b61089e565b005b6101996109e2565b6040516101a69190610b92565b60405180910390f35b5f8054906101000a900473ffffffffffffffffffffffffffffffffffffffff1673ffffffffffffffffffffffffffffffffffffffff163373ffffffffffffffffffffffffffffffffffffffff161461023c576040517f08c379a000000000000000000000000000000000000000000000000000000000815260040161023390610f4f565b60405180910390fd5b60405180606001604052808273ffffffffffffffffffffffffffffffffffffffff16815260200160405180602001604052805f81525081526020015f151581525060015f8373ffffffffffffffffffffffffffffffffffffffff1673ffffffffffffffffffffffffffffffffffffffff1681526020019081526020015f205f820151815f015f6101000a81548173ffffffffffffffffffffffffffffffffffffffff021916908373ffffffffffffffffffffffffffffffffffffffff16021790555060208201518160010190816103139190611167565b506040820151816002015f6101000a81548160ff02191690831515021790555090505050565b5f8054906101000a900473ffffffffffffffffffffffffffffffffffffffff1673ffffffffffffffffffffffffffffffffffffffff163373ffffffffffffffffffffffffffffffffffffffff16146103c6576040517f08c379a00000000000000000000000000000000000000000000000000000000081526004016103bd90610f4f565b60405180910390fd5b5f60015f8373ffffffffffffffffffffffffffffffffffffffff1673ffffffffffffffffffffffffffffffffffffffff1681526020019081526020015f20600101805461041290610f9a565b905003610454576040517f08c379a000000000000000000000000000000000000000000000000000000000815260040161044b90611280565b60405180910390fd5b60405180602001604052805f81525060015f8373ffffffffffffffffffffffffffffffffffffffff1673ffffffffffffffffffffffffffffffffffffffff1681526020019081526020015f2060010190816104af9190611167565b5060025f8154809291906104c2906112cb565b919050555050565b600380546104d790610f9a565b80601f016020809104026020016040519081016040528092919081815260200182805461050390610f9a565b801561054e5780601f106105255761010080835404028352916020019161054e565b820191905f5260205f20905b81548152906001019060200180831161053157829003601f168201915b505050505081565b60025481565b6001602052805f5260405f205f91509050805f015f9054906101000a900473ffffffffffffffffffffffffffffffffffffffff16908060010180546105a090610f9a565b80601f01602080910402602001604051908101604052809291908181526020018280546105cc90610f9a565b80156106175780601f106105ee57610100808354040283529160200191610617565b820191905f5260205f20905b8154815290600101906020018083116105fa57829003601f168201915b505050505090806002015f9054906101000a900460ff16905083565b5f8054906101000a900473ffffffffffffffffffffffffffffffffffffffff1681565b5f8054906101000a900473ffffffffffffffffffffffffffffffffffffffff1673ffffffffffffffffffffffffffffffffffffffff163373ffffffffffffffffffffffffffffffffffffffff16146106e3576040517f08c379a00000000000000000000000000000000000000000000000000000000081526004016106da90610f4f565b60405180910390fd5b5f815111610726576040517f08c379a000000000000000000000000000000000000000000000000000000000815260040161071d9061133c565b60405180910390fd5b5f5b8151811015610862575f8282815181106107455761074461135a565b5b602002602001015190505f60015f8373ffffffffffffffffffffffffffffffffffffffff1673ffffffffffffffffffffffffffffffffffffffff1681526020019081526020015f20600101805461079b90610f9a565b9050036107dd576040517f08c379a00000000000000000000000000000000000000000000000000000000081526004016107d4906113d1565b60405180910390fd5b600360015f8373ffffffffffffffffffffffffffffffffffffffff1673ffffffffffffffffffffffffffffffffffffffff1681526020019081526020015f20600101604051602001610830929190611479565b6040516020818303038152906040526003908161084d9190611167565b5050808061085a9061149c565b915050610728565b507f87be4345c09fc044b8fd45b4e43cbac9444ca418fd7995fd1b49b41115bde6b560036040516108939190611564565b60405180910390a150565b5f60015f3373ffffffffffffffffffffffffffffffffffffffff1673ffffffffffffffffffffffffffffffffffffffff1681526020019081526020015f2060010180546108ea90610f9a565b90501461092c576040517f08c379a0000000000000000000000000000000000000000000000000000000008152600401610923906115ce565b60405180910390fd5b8060015f3373ffffffffffffffffffffffffffffffffffffffff1673ffffffffffffffffffffffffffffffffffffffff1681526020019081526020015f2060010190816109799190611167565b5060025f81548092919061098c9061149c565b91905055503373ffffffffffffffffffffffffffffffffffffffff167f609f5e609ad3d82219984fd111ae09ae5bb8c677c16ca76755508d98eaf52e36826040516109d79190610b92565b60405180910390a250565b6060600380546109f190610f9a565b80601f0160208091040260200160405190810160405280929190818152602001828054610a1d90610f9a565b8015610a685780601f10610a3f57610100808354040283529160200191610a68565b820191905f5260205f20905b815481529060010190602001808311610a4b57829003601f168201915b5050505050905090565b5f604051905090565b5f80fd5b5f80fd5b5f73ffffffffffffffffffffffffffffffffffffffff82169050919050565b5f610aac82610a83565b9050919050565b610abc81610aa2565b8114610ac6575f80fd5b50565b5f81359050610ad781610ab3565b92915050565b5f60208284031215610af257610af1610a7b565b5b5f610aff84828501610ac9565b91505092915050565b5f81519050919050565b5f82825260208201905092915050565b5f5b83811015610b3f578082015181840152602081019050610b24565b5f8484015250505050565b5f601f19601f8301169050919050565b5f610b6482610b08565b610b6e8185610b12565b9350610b7e818560208601610b22565b610b8781610b4a565b840191505092915050565b5f6020820190508181035f830152610baa8184610b5a565b905092915050565b5f819050919050565b610bc481610bb2565b82525050565b5f602082019050610bdd5f830184610bbb565b92915050565b610bec81610aa2565b82525050565b5f8115159050919050565b610c0681610bf2565b82525050565b5f606082019050610c1f5f830186610be3565b8181036020830152610c318185610b5a565b9050610c406040830184610bfd565b949350505050565b5f602082019050610c5b5f830184610be3565b92915050565b5f80fd5b7f4e487b71000000000000000000000000000000000000000000000000000000005f52604160045260245ffd5b610c9b82610b4a565b810181811067ffffffffffffffff82111715610cba57610cb9610c65565b5b80604052505050565b5f610ccc610a72565b9050610cd88282610c92565b919050565b5f67ffffffffffffffff821115610cf757610cf6610c65565b5b602082029050602081019050919050565b5f80fd5b5f610d1e610d1984610cdd565b610cc3565b90508083825260208201905060208402830185811115610d4157610d40610d08565b5b835b81811015610d6a5780610d568882610ac9565b845260208401935050602081019050610d43565b5050509392505050565b5f82601f830112610d8857610d87610c61565b5b8135610d98848260208601610d0c565b91505092915050565b5f60208284031215610db657610db5610a7b565b5b5f82013567ffffffffffffffff811115610dd357610dd2610a7f565b5b610ddf84828501610d74565b91505092915050565b5f80fd5b5f67ffffffffffffffff821115610e0657610e05610c65565b5b610e0f82610b4a565b9050602081019050919050565b828183375f83830152505050565b5f610e3c610e3784610dec565b610cc3565b905082815260208101848484011115610e5857610e57610de8565b5b610e63848285610e1c565b509392505050565b5f82601f830112610e7f57610e7e610c61565b5b8135610e8f848260208601610e2a565b91505092915050565b5f60208284031215610ead57610eac610a7b565b5b5f82013567ffffffffffffffff811115610eca57610ec9610a7f565b5b610ed684828501610e6b565b91505092915050565b7f4f6e6c79206f776e65722063616e20706572666f726d207468697320616374695f8201527f6f6e000000000000000000000000000000000000000000000000000000000000602082015250565b5f610f39602283610b12565b9150610f4482610edf565b604082019050919050565b5f6020820190508181035f830152610f6681610f2d565b9050919050565b7f4e487b71000000000000000000000000000000000000000000000000000000005f52602260045260245ffd5b5f6002820490506001821680610fb157607f821691505b602082108103610fc457610fc3610f6d565b5b50919050565b5f819050815f5260205f209050919050565b5f6020601f8301049050919050565b5f82821b905092915050565b5f600883026110267fffffffffffffffffffffffffffffffffffffffffffffffffffffffffffffffff82610feb565b6110308683610feb565b95508019841693508086168417925050509392505050565b5f819050919050565b5f61106b61106661106184610bb2565b611048565b610bb2565b9050919050565b5f819050919050565b61108483611051565b61109861109082611072565b848454610ff7565b825550505050565b5f90565b6110ac6110a0565b6110b781848461107b565b505050565b5b818110156110da576110cf5f826110a4565b6001810190506110bd565b5050565b601f82111561111f576110f081610fca565b6110f984610fdc565b81016020851015611108578190505b61111c61111485610fdc565b8301826110bc565b50505b505050565b5f82821c905092915050565b5f61113f5f1984600802611124565b1980831691505092915050565b5f6111578383611130565b9150826002028217905092915050565b61117082610b08565b67ffffffffffffffff81111561118957611188610c65565b5b6111938254610f9a565b61119e8282856110de565b5f60209050601f8311600181146111cf575f84156111bd578287015190505b6111c7858261114c565b86555061122e565b601f1984166111dd86610fca565b5f5b82811015611204578489015182556001820191506020850194506020810190506111df565b86831015611221578489015161121d601f891682611130565b8355505b6001600288020188555050505b505050505050565b7f4e6f206461746120746f207265736574000000000000000000000000000000005f82015250565b5f61126a601083610b12565b915061127582611236565b602082019050919050565b5f6020820190508181035f8301526112978161125e565b9050919050565b7f4e487b71000000000000000000000000000000000000000000000000000000005f52601160045260245ffd5b5f6112d582610bb2565b91505f82036112e7576112e661129e565b5b600182039050919050565b7f4e6f2070726f7669646572206164647265737365732070726f766964656400005f82015250565b5f611326601e83610b12565b9150611331826112f2565b602082019050919050565b5f6020820190508181035f8301526113538161131a565b9050919050565b7f4e487b71000000000000000000000000000000000000000000000000000000005f52603260045260245ffd5b7f44617461206e6f74207375626d69747465642062792070726f766964657200005f82015250565b5f6113bb601e83610b12565b91506113c682611387565b602082019050919050565b5f6020820190508181035f8301526113e8816113af565b9050919050565b5f81905092915050565b5f815461140581610f9a565b61140f81866113ef565b9450600182165f8114611429576001811461143e57611470565b60ff1983168652811515820286019350611470565b61144785610fca565b5f5b8381101561146857815481890152600182019150602081019050611449565b838801955050505b50505092915050565b5f61148482856113f9565b915061149082846113f9565b91508190509392505050565b5f6114a682610bb2565b91507fffffffffffffffffffffffffffffffffffffffffffffffffffffffffffffffff82036114d8576114d761129e565b5b600182019050919050565b5f81546114ef81610f9a565b6114f98186610b12565b9450600182165f811461151357600181146115295761155b565b60ff19831686528115156020028601935061155b565b61153285610fca565b5f5b8381101561155357815481890152600182019150602081019050611534565b808801955050505b50505092915050565b5f6020820190508181035f83015261157c81846114e3565b905092915050565b7f4461746120616c7265616479207375626d6974746564000000000000000000005f82015250565b5f6115b8601683610b12565b91506115c382611584565b602082019050919050565b5f6020820190508181035f8301526115e5816115ac565b905091905056fea26469706673582212201eff276874069b0bbd1bdd89d4dc04c72578ae4350db7ebd7a773797d4f02e8f64736f6c63430008140033",
  "immutableReferences": {},
  "source": "// SPDX-License-Identifier: MIT\r\npragma solidity ^0.8.0;\r\n\r\ncontract Crowdsensing {\r\n    struct DataProvider {\r\n        address provider;\r\n        string encryptedData;\r\n        bool verified;\r\n    }\r\n\r\n    address public owner;\r\n    mapping(address => DataProvider) public dataProviders;\r\n    uint public dataCount;\r\n    string public encryptedSum;\r\n\r\n    event DataSubmitted(address indexed provider, string encryptedData);\r\n    event AggregationComplete(string encryptedSum);\r\n\r\n    constructor() {\r\n        owner = msg.sender;\r\n    }\r\n\r\n    modifier onlyOwner() {\r\n        require(msg.sender == owner, \"Only owner can perform this action\");\r\n        _;\r\n    }\r\n\r\n    function registerProvider(address provider) public onlyOwner {\r\n        dataProviders[provider] = DataProvider(provider, \"\", false);\r\n    }\r\n\r\n    function submitData(string memory encryptedData) public {\r\n        require(\r\n            bytes(dataProviders[msg.sender].encryptedData).length == 0,\r\n            \"Data already submitted\"\r\n        );\r\n        dataProviders[msg.sender].encryptedData = encryptedData;\r\n        dataCount++;\r\n        emit DataSubmitted(msg.sender, encryptedData);\r\n    }\r\n\r\nfunction aggregateEncryptedData(address[] memory providerAddresses) public onlyOwner {\r\n    require(providerAddresses.length > 0, \"No provider addresses provided\");\r\n    \r\n    for (uint i = 0; i < providerAddresses.length; i++) {\r\n        address provider = providerAddresses[i];\r\n        require(bytes(dataProviders[provider].encryptedData).length != 0, \"Data not submitted by provider\");\r\n        \r\n        encryptedSum = string(abi.encodePacked(encryptedSum, dataProviders[provider].encryptedData));\r\n    }\r\n    \r\n    emit AggregationComplete(encryptedSum);\r\n}\r\n\r\n    // New function to reset provider data\r\n    function resetProviderData(address provider) public onlyOwner {\r\n        require(bytes(dataProviders[provider].encryptedData).length != 0, \"No data to reset\");\r\n        dataProviders[provider].encryptedData = \"\";\r\n        dataCount--;\r\n    }\r\n    \r\n    function getEncryptedSum() public view returns (string memory) {\r\n        return encryptedSum;\r\n    }\r\n}\r\n",
  "sourcePath": "C:\\Users\\User\\Documents\\GitHub\\blockchain-crowdsensing\\contracts\\Crowdsensing.sol",
  "compiler": {
    "name": "solc",
    "version": "0.8.20+commit.a1b79de6.Emscripten.clang"
  },
  "schemaVersion": "3.4.16",
  "updatedAt": "2024-10-19T05:03:12.135Z",
  "networkType": "ethereum",
  "devdoc": {
    "kind": "dev",
    "methods": {},
    "version": 1
  },
  "userdoc": {
    "kind": "user",
    "methods": {},
    "version": 1
  }
}