{
  "contractName": "Crowdsensing",
  "abi": [
    {
      "inputs": [],
      "stateMutability": "nonpayable",
      "type": "constructor"
    },
    {
      "anonymous": false,
      "inputs": [
        {
          "indexed": false,
          "internalType": "string",
          "name": "encryptedSum",
          "type": "string"
        }
      ],
      "name": "AggregationComplete",
      "type": "event"
    },
    {
      "anonymous": false,
      "inputs": [
        {
          "indexed": true,
          "internalType": "address",
          "name": "provider",
          "type": "address"
        },
        {
          "indexed": false,
          "internalType": "string",
          "name": "encryptedData",
          "type": "string"
        }
      ],
      "name": "DataSubmitted",
      "type": "event"
    },
    {
      "inputs": [],
      "name": "dataCount",
      "outputs": [
        {
          "internalType": "uint256",
          "name": "",
          "type": "uint256"
        }
      ],
      "stateMutability": "view",
      "type": "function",
      "constant": true
    },
    {
      "inputs": [
        {
          "internalType": "address",
          "name": "",
          "type": "address"
        }
      ],
      "name": "dataProviders",
      "outputs": [
        {
          "internalType": "address",
          "name": "provider",
          "type": "address"
        },
        {
          "internalType": "string",
          "name": "encryptedData",
          "type": "string"
        },
        {
          "internalType": "bool",
          "name": "verified",
          "type": "bool"
        }
      ],
      "stateMutability": "view",
      "type": "function",
      "constant": true
    },
    {
      "inputs": [],
      "name": "encryptedSum",
      "outputs": [
        {
          "internalType": "string",
          "name": "",
          "type": "string"
        }
      ],
      "stateMutability": "view",
      "type": "function",
      "constant": true
    },
    {
      "inputs": [],
      "name": "owner",
      "outputs": [
        {
          "internalType": "address",
          "name": "",
          "type": "address"
        }
      ],
      "stateMutability": "view",
      "type": "function",
      "constant": true
    },
    {
      "inputs": [
        {
          "internalType": "string",
          "name": "encryptedData",
          "type": "string"
        }
      ],
      "name": "submitData",
      "outputs": [],
      "stateMutability": "nonpayable",
      "type": "function"
    },
    {
      "inputs": [
        {
          "internalType": "address[]",
          "name": "providerAddresses",
          "type": "address[]"
        }
      ],
      "name": "aggregateEncryptedData",
      "outputs": [],
      "stateMutability": "nonpayable",
      "type": "function"
    },
    {
      "inputs": [
        {
          "internalType": "address",
          "name": "provider",
          "type": "address"
        }
      ],
      "name": "resetProviderData",
      "outputs": [],
      "stateMutability": "nonpayable",
      "type": "function"
    },
    {
      "inputs": [
        {
          "internalType": "address",
          "name": "provider",
          "type": "address"
        }
      ],
      "name": "registerProvider",
      "outputs": [],
      "stateMutability": "nonpayable",
      "type": "function"
    },
    {
      "inputs": [],
      "name": "getEncryptedSum",
      "outputs": [
        {
          "internalType": "string",
          "name": "",
          "type": "string"
        }
      ],
      "stateMutability": "view",
      "type": "function",
      "constant": true
    }
  ],
  "bytecode": "0x608060405234801561000f575f80fd5b50335f806101000a81548173ffffffffffffffffffffffffffffffffffffffff021916908373ffffffffffffffffffffffffffffffffffffffff1602179055506117ee8061005c5f395ff3fe608060405234801561000f575f80fd5b5060043610610091575f3560e01c8063780aac0311610064578063780aac03146101095780638da5cb5b1461013b578063934e4c4714610159578063a2aac7ab14610175578063e096dd251461019157610091565b80630e26001614610095578063204c4929146100b1578063323998af146100cd5780635da40c47146100eb575b5f80fd5b6100af60048036038101906100aa9190610bd9565b6101af565b005b6100cb60048036038101906100c69190610bd9565b610435565b005b6100d56105c6565b6040516100e29190610c8e565b60405180910390f35b6100f3610652565b6040516101009190610cc6565b60405180910390f35b610123600480360381019061011e9190610bd9565b610658565b60405161013293929190610d08565b60405180910390f35b61014361072f565b6040516101509190610d44565b60405180910390f35b610173600480360381019061016e9190610e9d565b610752565b005b61018f600480360381019061018a9190610f94565b61099a565b005b610199610ade565b6040516101a69190610c8e565b60405180910390f35b5f8054906101000a900473ffffffffffffffffffffffffffffffffffffffff1673ffffffffffffffffffffffffffffffffffffffff163373ffffffffffffffffffffffffffffffffffffffff161461023c576040517f08c379a00000000000000000000000000000000000000000000000000000000081526004016102339061104b565b60405180910390fd5b5f73ffffffffffffffffffffffffffffffffffffffff168173ffffffffffffffffffffffffffffffffffffffff16036102aa576040517f08c379a00000000000000000000000000000000000000000000000000000000081526004016102a1906110b3565b60405180910390fd5b5f60015f8373ffffffffffffffffffffffffffffffffffffffff1673ffffffffffffffffffffffffffffffffffffffff1681526020019081526020015f2060010180546102f6906110fe565b905014610338576040517f08c379a000000000000000000000000000000000000000000000000000000000815260040161032f90611178565b60405180910390fd5b60405180606001604052808273ffffffffffffffffffffffffffffffffffffffff16815260200160405180602001604052805f81525081526020015f151581525060015f8373ffffffffffffffffffffffffffffffffffffffff1673ffffffffffffffffffffffffffffffffffffffff1681526020019081526020015f205f820151815f015f6101000a81548173ffffffffffffffffffffffffffffffffffffffff021916908373ffffffffffffffffffffffffffffffffffffffff160217905550602082015181600101908161040f9190611333565b506040820151816002015f6101000a81548160ff02191690831515021790555090505050565b5f8054906101000a900473ffffffffffffffffffffffffffffffffffffffff1673ffffffffffffffffffffffffffffffffffffffff163373ffffffffffffffffffffffffffffffffffffffff16146104c2576040517f08c379a00000000000000000000000000000000000000000000000000000000081526004016104b99061104b565b60405180910390fd5b5f60015f8373ffffffffffffffffffffffffffffffffffffffff1673ffffffffffffffffffffffffffffffffffffffff1681526020019081526020015f20600101805461050e906110fe565b905003610550576040517f08c379a00000000000000000000000000000000000000000000000000000000081526004016105479061144c565b60405180910390fd5b60405180602001604052805f81525060015f8373ffffffffffffffffffffffffffffffffffffffff1673ffffffffffffffffffffffffffffffffffffffff1681526020019081526020015f2060010190816105ab9190611333565b5060025f8154809291906105be90611497565b919050555050565b600380546105d3906110fe565b80601f01602080910402602001604051908101604052809291908181526020018280546105ff906110fe565b801561064a5780601f106106215761010080835404028352916020019161064a565b820191905f5260205f20905b81548152906001019060200180831161062d57829003601f168201915b505050505081565b60025481565b6001602052805f5260405f205f91509050805f015f9054906101000a900473ffffffffffffffffffffffffffffffffffffffff169080600101805461069c906110fe565b80601f01602080910402602001604051908101604052809291908181526020018280546106c8906110fe565b80156107135780601f106106ea57610100808354040283529160200191610713565b820191905f5260205f20905b8154815290600101906020018083116106f657829003601f168201915b505050505090806002015f9054906101000a900460ff16905083565b5f8054906101000a900473ffffffffffffffffffffffffffffffffffffffff1681565b5f8054906101000a900473ffffffffffffffffffffffffffffffffffffffff1673ffffffffffffffffffffffffffffffffffffffff163373ffffffffffffffffffffffffffffffffffffffff16146107df576040517f08c379a00000000000000000000000000000000000000000000000000000000081526004016107d69061104b565b60405180910390fd5b5f815111610822576040517f08c379a000000000000000000000000000000000000000000000000000000000815260040161081990611508565b60405180910390fd5b5f5b815181101561095e575f82828151811061084157610840611526565b5b602002602001015190505f60015f8373ffffffffffffffffffffffffffffffffffffffff1673ffffffffffffffffffffffffffffffffffffffff1681526020019081526020015f206001018054610897906110fe565b9050036108d9576040517f08c379a00000000000000000000000000000000000000000000000000000000081526004016108d09061159d565b60405180910390fd5b600360015f8373ffffffffffffffffffffffffffffffffffffffff1673ffffffffffffffffffffffffffffffffffffffff1681526020019081526020015f2060010160405160200161092c929190611645565b604051602081830303815290604052600390816109499190611333565b5050808061095690611668565b915050610824565b507f87be4345c09fc044b8fd45b4e43cbac9444ca418fd7995fd1b49b41115bde6b5600360405161098f9190611730565b60405180910390a150565b5f60015f3373ffffffffffffffffffffffffffffffffffffffff1673ffffffffffffffffffffffffffffffffffffffff1681526020019081526020015f2060010180546109e6906110fe565b905014610a28576040517f08c379a0000000000000000000000000000000000000000000000000000000008152600401610a1f9061179a565b60405180910390fd5b8060015f3373ffffffffffffffffffffffffffffffffffffffff1673ffffffffffffffffffffffffffffffffffffffff1681526020019081526020015f206001019081610a759190611333565b5060025f815480929190610a8890611668565b91905055503373ffffffffffffffffffffffffffffffffffffffff167f609f5e609ad3d82219984fd111ae09ae5bb8c677c16ca76755508d98eaf52e3682604051610ad39190610c8e565b60405180910390a250565b606060038054610aed906110fe565b80601f0160208091040260200160405190810160405280929190818152602001828054610b19906110fe565b8015610b645780601f10610b3b57610100808354040283529160200191610b64565b820191905f5260205f20905b815481529060010190602001808311610b4757829003601f168201915b5050505050905090565b5f604051905090565b5f80fd5b5f80fd5b5f73ffffffffffffffffffffffffffffffffffffffff82169050919050565b5f610ba882610b7f565b9050919050565b610bb881610b9e565b8114610bc2575f80fd5b50565b5f81359050610bd381610baf565b92915050565b5f60208284031215610bee57610bed610b77565b5b5f610bfb84828501610bc5565b91505092915050565b5f81519050919050565b5f82825260208201905092915050565b5f5b83811015610c3b578082015181840152602081019050610c20565b5f8484015250505050565b5f601f19601f8301169050919050565b5f610c6082610c04565b610c6a8185610c0e565b9350610c7a818560208601610c1e565b610c8381610c46565b840191505092915050565b5f6020820190508181035f830152610ca68184610c56565b905092915050565b5f819050919050565b610cc081610cae565b82525050565b5f602082019050610cd95f830184610cb7565b92915050565b610ce881610b9e565b82525050565b5f8115159050919050565b610d0281610cee565b82525050565b5f606082019050610d1b5f830186610cdf565b8181036020830152610d2d8185610c56565b9050610d3c6040830184610cf9565b949350505050565b5f602082019050610d575f830184610cdf565b92915050565b5f80fd5b7f4e487b71000000000000000000000000000000000000000000000000000000005f52604160045260245ffd5b610d9782610c46565b810181811067ffffffffffffffff82111715610db657610db5610d61565b5b80604052505050565b5f610dc8610b6e565b9050610dd48282610d8e565b919050565b5f67ffffffffffffffff821115610df357610df2610d61565b5b602082029050602081019050919050565b5f80fd5b5f610e1a610e1584610dd9565b610dbf565b90508083825260208201905060208402830185811115610e3d57610e3c610e04565b5b835b81811015610e665780610e528882610bc5565b845260208401935050602081019050610e3f565b5050509392505050565b5f82601f830112610e8457610e83610d5d565b5b8135610e94848260208601610e08565b91505092915050565b5f60208284031215610eb257610eb1610b77565b5b5f82013567ffffffffffffffff811115610ecf57610ece610b7b565b5b610edb84828501610e70565b91505092915050565b5f80fd5b5f67ffffffffffffffff821115610f0257610f01610d61565b5b610f0b82610c46565b9050602081019050919050565b828183375f83830152505050565b5f610f38610f3384610ee8565b610dbf565b905082815260208101848484011115610f5457610f53610ee4565b5b610f5f848285610f18565b509392505050565b5f82601f830112610f7b57610f7a610d5d565b5b8135610f8b848260208601610f26565b91505092915050565b5f60208284031215610fa957610fa8610b77565b5b5f82013567ffffffffffffffff811115610fc657610fc5610b7b565b5b610fd284828501610f67565b91505092915050565b7f4f6e6c79206f776e65722063616e20706572666f726d207468697320616374695f8201527f6f6e000000000000000000000000000000000000000000000000000000000000602082015250565b5f611035602283610c0e565b915061104082610fdb565b604082019050919050565b5f6020820190508181035f83015261106281611029565b9050919050565b7f496e76616c6964206164647265737300000000000000000000000000000000005f82015250565b5f61109d600f83610c0e565b91506110a882611069565b602082019050919050565b5f6020820190508181035f8301526110ca81611091565b9050919050565b7f4e487b71000000000000000000000000000000000000000000000000000000005f52602260045260245ffd5b5f600282049050600182168061111557607f821691505b602082108103611128576111276110d1565b5b50919050565b7f50726f766964657220616c7265616479207265676973746572656400000000005f82015250565b5f611162601b83610c0e565b915061116d8261112e565b602082019050919050565b5f6020820190508181035f83015261118f81611156565b9050919050565b5f819050815f5260205f209050919050565b5f6020601f8301049050919050565b5f82821b905092915050565b5f600883026111f27fffffffffffffffffffffffffffffffffffffffffffffffffffffffffffffffff826111b7565b6111fc86836111b7565b95508019841693508086168417925050509392505050565b5f819050919050565b5f61123761123261122d84610cae565b611214565b610cae565b9050919050565b5f819050919050565b6112508361121d565b61126461125c8261123e565b8484546111c3565b825550505050565b5f90565b61127861126c565b611283818484611247565b505050565b5b818110156112a65761129b5f82611270565b600181019050611289565b5050565b601f8211156112eb576112bc81611196565b6112c5846111a8565b810160208510156112d4578190505b6112e86112e0856111a8565b830182611288565b50505b505050565b5f82821c905092915050565b5f61130b5f19846008026112f0565b1980831691505092915050565b5f61132383836112fc565b9150826002028217905092915050565b61133c82610c04565b67ffffffffffffffff81111561135557611354610d61565b5b61135f82546110fe565b61136a8282856112aa565b5f60209050601f83116001811461139b575f8415611389578287015190505b6113938582611318565b8655506113fa565b601f1984166113a986611196565b5f5b828110156113d0578489015182556001820191506020850194506020810190506113ab565b868310156113ed57848901516113e9601f8916826112fc565b8355505b6001600288020188555050505b505050505050565b7f4e6f206461746120746f207265736574000000000000000000000000000000005f82015250565b5f611436601083610c0e565b915061144182611402565b602082019050919050565b5f6020820190508181035f8301526114638161142a565b9050919050565b7f4e487b71000000000000000000000000000000000000000000000000000000005f52601160045260245ffd5b5f6114a182610cae565b91505f82036114b3576114b261146a565b5b600182039050919050565b7f4e6f2070726f7669646572206164647265737365732070726f766964656400005f82015250565b5f6114f2601e83610c0e565b91506114fd826114be565b602082019050919050565b5f6020820190508181035f83015261151f816114e6565b9050919050565b7f4e487b71000000000000000000000000000000000000000000000000000000005f52603260045260245ffd5b7f44617461206e6f74207375626d697474656400000000000000000000000000005f82015250565b5f611587601283610c0e565b915061159282611553565b602082019050919050565b5f6020820190508181035f8301526115b48161157b565b9050919050565b5f81905092915050565b5f81546115d1816110fe565b6115db81866115bb565b9450600182165f81146115f5576001811461160a5761163c565b60ff198316865281151582028601935061163c565b61161385611196565b5f5b8381101561163457815481890152600182019150602081019050611615565b838801955050505b50505092915050565b5f61165082856115c5565b915061165c82846115c5565b91508190509392505050565b5f61167282610cae565b91507fffffffffffffffffffffffffffffffffffffffffffffffffffffffffffffffff82036116a4576116a361146a565b5b600182019050919050565b5f81546116bb816110fe565b6116c58186610c0e565b9450600182165f81146116df57600181146116f557611727565b60ff198316865281151560200286019350611727565b6116fe85611196565b5f5b8381101561171f57815481890152600182019150602081019050611700565b808801955050505b50505092915050565b5f6020820190508181035f83015261174881846116af565b905092915050565b7f4461746120616c7265616479207375626d6974746564000000000000000000005f82015250565b5f611784601683610c0e565b915061178f82611750565b602082019050919050565b5f6020820190508181035f8301526117b181611778565b905091905056fea2646970667358221220b5f1c182d422e5c478f4525450cfe137aa0bb6569546427885d498e33ef638cb64736f6c63430008140033",
  "immutableReferences": {},
  "source": "// SPDX-License-Identifier: MIT\r\npragma solidity ^0.8.0;\r\n\r\ncontract Crowdsensing {\r\n    struct DataProvider {\r\n        address provider;\r\n        string encryptedData;\r\n        bool verified;\r\n    }\r\n\r\n    address public owner;\r\n    mapping(address => DataProvider) public dataProviders;\r\n    uint public dataCount;\r\n    string public encryptedSum;\r\n\r\n    event DataSubmitted(address indexed provider, string encryptedData);\r\n    event AggregationComplete(string encryptedSum);\r\n\r\n    constructor() {\r\n        owner = msg.sender;\r\n    }\r\n\r\n    modifier onlyOwner() {\r\n        require(msg.sender == owner, \"Only owner can perform this action\");\r\n        _;\r\n    }\r\n\r\n    function submitData(string memory encryptedData) public {\r\n        require(\r\n            bytes(dataProviders[msg.sender].encryptedData).length == 0,\r\n            \"Data already submitted\"\r\n        );\r\n        dataProviders[msg.sender].encryptedData = encryptedData;\r\n        dataCount++;\r\n        emit DataSubmitted(msg.sender, encryptedData);\r\n    }\r\n\r\n    function aggregateEncryptedData(\r\n        address[] memory providerAddresses\r\n    ) public onlyOwner {\r\n        require(providerAddresses.length > 0, \"No provider addresses provided\");\r\n\r\n        for (uint i = 0; i < providerAddresses.length; i++) {\r\n            address provider = providerAddresses[i];\r\n            require(\r\n                bytes(dataProviders[provider].encryptedData).length != 0,\r\n                \"Data not submitted\"\r\n            );\r\n\r\n            encryptedSum = string(\r\n                abi.encodePacked(\r\n                    encryptedSum,\r\n                    dataProviders[provider].encryptedData\r\n                )\r\n            );\r\n        }\r\n\r\n        emit AggregationComplete(encryptedSum);\r\n    }\r\n\r\n    // New function to reset provider data\r\n    function resetProviderData(address provider) public onlyOwner {\r\n        require(\r\n            bytes(dataProviders[provider].encryptedData).length != 0,\r\n            \"No data to reset\"\r\n        );\r\n        dataProviders[provider].encryptedData = \"\";\r\n        dataCount--;\r\n    }\r\n\r\n    function registerProvider(address provider) public onlyOwner {\r\n        require(provider != address(0), \"Invalid address\");\r\n        require(\r\n            bytes(dataProviders[provider].encryptedData).length == 0,\r\n            \"Provider already registered\"\r\n        );\r\n\r\n        dataProviders[provider] = DataProvider(provider, \"\", false);\r\n    }\r\n\r\n    function getEncryptedSum() public view returns (string memory) {\r\n        return encryptedSum;\r\n    }\r\n}\r\n",
  "sourcePath": "C:\\Users\\User\\Documents\\GitHub\\blockchain-crowdsensing\\contracts\\Crowdsensing.sol",
  "compiler": {
    "name": "solc",
    "version": "0.8.20+commit.a1b79de6.Emscripten.clang"
  },
  "schemaVersion": "3.4.16",
  "updatedAt": "2024-10-19T07:47:52.755Z",
  "networkType": "ethereum",
  "devdoc": {
    "kind": "dev",
    "methods": {},
    "version": 1
  },
  "userdoc": {
    "kind": "user",
    "methods": {},
    "version": 1
  }
}