{
  "contractName": "Crowdsensing",
  "abi": [
    {
      "inputs": [],
      "stateMutability": "nonpayable",
      "type": "constructor"
    },
    {
      "anonymous": false,
      "inputs": [
        {
          "indexed": false,
          "internalType": "string",
          "name": "encryptedSum",
          "type": "string"
        }
      ],
      "name": "AggregationComplete",
      "type": "event"
    },
    {
      "anonymous": false,
      "inputs": [
        {
          "indexed": true,
          "internalType": "address",
          "name": "provider",
          "type": "address"
        },
        {
          "indexed": false,
          "internalType": "string",
          "name": "encryptedData",
          "type": "string"
        }
      ],
      "name": "DataSubmitted",
      "type": "event"
    },
    {
      "inputs": [],
      "name": "dataCount",
      "outputs": [
        {
          "internalType": "uint256",
          "name": "",
          "type": "uint256"
        }
      ],
      "stateMutability": "view",
      "type": "function",
      "constant": true
    },
    {
      "inputs": [
        {
          "internalType": "address",
          "name": "",
          "type": "address"
        }
      ],
      "name": "dataProviders",
      "outputs": [
        {
          "internalType": "address",
          "name": "provider",
          "type": "address"
        },
        {
          "internalType": "bool",
          "name": "verified",
          "type": "bool"
        }
      ],
      "stateMutability": "view",
      "type": "function",
      "constant": true
    },
    {
      "inputs": [],
      "name": "lastAggregatedSum",
      "outputs": [
        {
          "internalType": "string",
          "name": "",
          "type": "string"
        }
      ],
      "stateMutability": "view",
      "type": "function",
      "constant": true
    },
    {
      "inputs": [],
      "name": "owner",
      "outputs": [
        {
          "internalType": "address",
          "name": "",
          "type": "address"
        }
      ],
      "stateMutability": "view",
      "type": "function",
      "constant": true
    },
    {
      "inputs": [
        {
          "internalType": "string",
          "name": "encryptedData",
          "type": "string"
        }
      ],
      "name": "submitData",
      "outputs": [],
      "stateMutability": "nonpayable",
      "type": "function"
    },
    {
      "inputs": [
        {
          "internalType": "address[]",
          "name": "providerAddresses",
          "type": "address[]"
        }
      ],
      "name": "aggregateEncryptedData",
      "outputs": [
        {
          "internalType": "string",
          "name": "",
          "type": "string"
        }
      ],
      "stateMutability": "nonpayable",
      "type": "function"
    },
    {
      "inputs": [],
      "name": "getLastAggregatedSum",
      "outputs": [
        {
          "internalType": "string",
          "name": "",
          "type": "string"
        }
      ],
      "stateMutability": "view",
      "type": "function",
      "constant": true
    }
  ],
  "bytecode": "0x608060405234801561000f575f80fd5b50335f806101000a81548173ffffffffffffffffffffffffffffffffffffffff021916908373ffffffffffffffffffffffffffffffffffffffff1602179055506111e38061005c5f395ff3fe608060405234801561000f575f80fd5b506004361061007b575f3560e01c8063780aac0311610059578063780aac03146100d95780638da5cb5b1461010a578063934e4c4714610128578063a2aac7ab146101585761007b565b80630bb0a1521461007f5780635da40c471461009d57806361822015146100bb575b5f80fd5b610087610174565b604051610094919061083a565b60405180910390f35b6100a5610200565b6040516100b29190610872565b60405180910390f35b6100c3610206565b6040516100d0919061083a565b60405180910390f35b6100f360048036038101906100ee91906108f6565b610296565b60405161010192919061094a565b60405180910390f35b6101126102e1565b60405161011f9190610971565b60405180910390f35b610142600480360381019061013d9190610aca565b610304565b60405161014f919061083a565b60405180910390f35b610172600480360381019061016d9190610bc1565b6105c9565b005b6003805461018190610c35565b80601f01602080910402602001604051908101604052809291908181526020018280546101ad90610c35565b80156101f85780601f106101cf576101008083540402835291602001916101f8565b820191905f5260205f20905b8154815290600101906020018083116101db57829003601f168201915b505050505081565b60025481565b60606003805461021590610c35565b80601f016020809104026020016040519081016040528092919081815260200182805461024190610c35565b801561028c5780601f106102635761010080835404028352916020019161028c565b820191905f5260205f20905b81548152906001019060200180831161026f57829003601f168201915b5050505050905090565b6001602052805f5260405f205f91509050805f015f9054906101000a900473ffffffffffffffffffffffffffffffffffffffff1690806002015f9054906101000a900460ff16905082565b5f8054906101000a900473ffffffffffffffffffffffffffffffffffffffff1681565b60605f8054906101000a900473ffffffffffffffffffffffffffffffffffffffff1673ffffffffffffffffffffffffffffffffffffffff163373ffffffffffffffffffffffffffffffffffffffff1614610393576040517f08c379a000000000000000000000000000000000000000000000000000000000815260040161038a90610cd5565b60405180910390fd5b5f8251116103d6576040517f08c379a00000000000000000000000000000000000000000000000000000000081526004016103cd90610d3d565b60405180910390fd5b60605f5b8351811015610578575f8482815181106103f7576103f6610d5b565b5b602002602001015190505f60015f8373ffffffffffffffffffffffffffffffffffffffff1673ffffffffffffffffffffffffffffffffffffffff1681526020019081526020015f206001018054905011610486576040517f08c379a000000000000000000000000000000000000000000000000000000000815260040161047d90610dd2565b60405180910390fd5b5f5b60015f8373ffffffffffffffffffffffffffffffffffffffff1673ffffffffffffffffffffffffffffffffffffffff1681526020019081526020015f2060010180549050811015610563578360015f8473ffffffffffffffffffffffffffffffffffffffff1673ffffffffffffffffffffffffffffffffffffffff1681526020019081526020015f20600101828154811061052657610525610d5b565b5b905f5260205f200160405160200161053f929190610ebc565b6040516020818303038152906040529350808061055b90610f0c565b915050610488565b5050808061057090610f0c565b9150506103da565b50806003908161058891906110de565b507f87be4345c09fc044b8fd45b4e43cbac9444ca418fd7995fd1b49b41115bde6b5816040516105b8919061083a565b60405180910390a180915050919050565b5f73ffffffffffffffffffffffffffffffffffffffff1660015f3373ffffffffffffffffffffffffffffffffffffffff1673ffffffffffffffffffffffffffffffffffffffff1681526020019081526020015f205f015f9054906101000a900473ffffffffffffffffffffffffffffffffffffffff1673ffffffffffffffffffffffffffffffffffffffff16036106d8573360015f3373ffffffffffffffffffffffffffffffffffffffff1673ffffffffffffffffffffffffffffffffffffffff1681526020019081526020015f205f015f6101000a81548173ffffffffffffffffffffffffffffffffffffffff021916908373ffffffffffffffffffffffffffffffffffffffff1602179055505b60015f3373ffffffffffffffffffffffffffffffffffffffff1673ffffffffffffffffffffffffffffffffffffffff1681526020019081526020015f2060010181908060018154018082558091505060019003905f5260205f20015f90919091909150908161074791906110de565b5060025f81548092919061075a90610f0c565b91905055503373ffffffffffffffffffffffffffffffffffffffff167f609f5e609ad3d82219984fd111ae09ae5bb8c677c16ca76755508d98eaf52e36826040516107a5919061083a565b60405180910390a250565b5f81519050919050565b5f82825260208201905092915050565b5f5b838110156107e75780820151818401526020810190506107cc565b5f8484015250505050565b5f601f19601f8301169050919050565b5f61080c826107b0565b61081681856107ba565b93506108268185602086016107ca565b61082f816107f2565b840191505092915050565b5f6020820190508181035f8301526108528184610802565b905092915050565b5f819050919050565b61086c8161085a565b82525050565b5f6020820190506108855f830184610863565b92915050565b5f604051905090565b5f80fd5b5f80fd5b5f73ffffffffffffffffffffffffffffffffffffffff82169050919050565b5f6108c58261089c565b9050919050565b6108d5816108bb565b81146108df575f80fd5b50565b5f813590506108f0816108cc565b92915050565b5f6020828403121561090b5761090a610894565b5b5f610918848285016108e2565b91505092915050565b61092a816108bb565b82525050565b5f8115159050919050565b61094481610930565b82525050565b5f60408201905061095d5f830185610921565b61096a602083018461093b565b9392505050565b5f6020820190506109845f830184610921565b92915050565b5f80fd5b7f4e487b71000000000000000000000000000000000000000000000000000000005f52604160045260245ffd5b6109c4826107f2565b810181811067ffffffffffffffff821117156109e3576109e261098e565b5b80604052505050565b5f6109f561088b565b9050610a0182826109bb565b919050565b5f67ffffffffffffffff821115610a2057610a1f61098e565b5b602082029050602081019050919050565b5f80fd5b5f610a47610a4284610a06565b6109ec565b90508083825260208201905060208402830185811115610a6a57610a69610a31565b5b835b81811015610a935780610a7f88826108e2565b845260208401935050602081019050610a6c565b5050509392505050565b5f82601f830112610ab157610ab061098a565b5b8135610ac1848260208601610a35565b91505092915050565b5f60208284031215610adf57610ade610894565b5b5f82013567ffffffffffffffff811115610afc57610afb610898565b5b610b0884828501610a9d565b91505092915050565b5f80fd5b5f67ffffffffffffffff821115610b2f57610b2e61098e565b5b610b38826107f2565b9050602081019050919050565b828183375f83830152505050565b5f610b65610b6084610b15565b6109ec565b905082815260208101848484011115610b8157610b80610b11565b5b610b8c848285610b45565b509392505050565b5f82601f830112610ba857610ba761098a565b5b8135610bb8848260208601610b53565b91505092915050565b5f60208284031215610bd657610bd5610894565b5b5f82013567ffffffffffffffff811115610bf357610bf2610898565b5b610bff84828501610b94565b91505092915050565b7f4e487b71000000000000000000000000000000000000000000000000000000005f52602260045260245ffd5b5f6002820490506001821680610c4c57607f821691505b602082108103610c5f57610c5e610c08565b5b50919050565b7f4f6e6c79206f776e65722063616e20706572666f726d207468697320616374695f8201527f6f6e000000000000000000000000000000000000000000000000000000000000602082015250565b5f610cbf6022836107ba565b9150610cca82610c65565b604082019050919050565b5f6020820190508181035f830152610cec81610cb3565b9050919050565b7f4e6f2070726f7669646572206164647265737365732070726f766964656400005f82015250565b5f610d27601e836107ba565b9150610d3282610cf3565b602082019050919050565b5f6020820190508181035f830152610d5481610d1b565b9050919050565b7f4e487b71000000000000000000000000000000000000000000000000000000005f52603260045260245ffd5b7f4e6f2064617461207375626d69747465640000000000000000000000000000005f82015250565b5f610dbc6011836107ba565b9150610dc782610d88565b602082019050919050565b5f6020820190508181035f830152610de981610db0565b9050919050565b5f81905092915050565b5f610e04826107b0565b610e0e8185610df0565b9350610e1e8185602086016107ca565b80840191505092915050565b5f819050815f5260205f209050919050565b5f8154610e4881610c35565b610e528186610df0565b9450600182165f8114610e6c5760018114610e8157610eb3565b60ff1983168652811515820286019350610eb3565b610e8a85610e2a565b5f5b83811015610eab57815481890152600182019150602081019050610e8c565b838801955050505b50505092915050565b5f610ec78285610dfa565b9150610ed38284610e3c565b91508190509392505050565b7f4e487b71000000000000000000000000000000000000000000000000000000005f52601160045260245ffd5b5f610f168261085a565b91507fffffffffffffffffffffffffffffffffffffffffffffffffffffffffffffffff8203610f4857610f47610edf565b5b600182019050919050565b5f6020601f8301049050919050565b5f82821b905092915050565b5f60088302610f9d7fffffffffffffffffffffffffffffffffffffffffffffffffffffffffffffffff82610f62565b610fa78683610f62565b95508019841693508086168417925050509392505050565b5f819050919050565b5f610fe2610fdd610fd88461085a565b610fbf565b61085a565b9050919050565b5f819050919050565b610ffb83610fc8565b61100f61100782610fe9565b848454610f6e565b825550505050565b5f90565b611023611017565b61102e818484610ff2565b505050565b5b81811015611051576110465f8261101b565b600181019050611034565b5050565b601f8211156110965761106781610e2a565b61107084610f53565b8101602085101561107f578190505b61109361108b85610f53565b830182611033565b50505b505050565b5f82821c905092915050565b5f6110b65f198460080261109b565b1980831691505092915050565b5f6110ce83836110a7565b9150826002028217905092915050565b6110e7826107b0565b67ffffffffffffffff811115611100576110ff61098e565b5b61110a8254610c35565b611115828285611055565b5f60209050601f831160018114611146575f8415611134578287015190505b61113e85826110c3565b8655506111a5565b601f19841661115486610e2a565b5f5b8281101561117b57848901518255600182019150602085019450602081019050611156565b868310156111985784890151611194601f8916826110a7565b8355505b6001600288020188555050505b50505050505056fea264697066735822122076639d6c8a4ff3868dd1dfc39236f67ab2c039a1375471eef0a2d998040cd57a64736f6c63430008140033",
  "immutableReferences": {},
  "source": "// SPDX-License-Identifier: MIT\r\npragma solidity ^0.8.0;\r\n\r\ncontract Crowdsensing {\r\n    struct DataProvider {\r\n        address provider;\r\n        string[] encryptedData; \r\n        bool verified;\r\n    }\r\n\r\n    address public owner;\r\n    mapping(address => DataProvider) public dataProviders;\r\n    uint public dataCount;\r\n    string public lastAggregatedSum;  // Store last aggregated sum\r\n\r\n    event DataSubmitted(address indexed provider, string encryptedData);\r\n    event AggregationComplete(string encryptedSum);\r\n\r\n    constructor() {\r\n        owner = msg.sender;\r\n    }\r\n\r\n    modifier onlyOwner() {\r\n        require(msg.sender == owner, \"Only owner can perform this action\");\r\n        _;\r\n    }\r\n\r\n    function submitData(string memory encryptedData) public {\r\n        if (dataProviders[msg.sender].provider == address(0)) {\r\n            dataProviders[msg.sender].provider = msg.sender;\r\n        }\r\n        dataProviders[msg.sender].encryptedData.push(encryptedData);\r\n        dataCount++;\r\n        emit DataSubmitted(msg.sender, encryptedData);\r\n    }\r\n\r\n    function aggregateEncryptedData(\r\n        address[] memory providerAddresses\r\n    ) public onlyOwner returns (string memory) {\r\n        require(providerAddresses.length > 0, \"No provider addresses provided\");\r\n\r\n        string memory encryptedSum;\r\n        for (uint i = 0; i < providerAddresses.length; i++) {\r\n            address provider = providerAddresses[i];\r\n            require(\r\n                dataProviders[provider].encryptedData.length > 0,\r\n                \"No data submitted\"\r\n            );\r\n            for (uint j = 0; j < dataProviders[provider].encryptedData.length; j++) {\r\n                encryptedSum = string(\r\n                    abi.encodePacked(\r\n                        encryptedSum,\r\n                        dataProviders[provider].encryptedData[j]\r\n                    )\r\n                );\r\n            }\r\n        }\r\n        lastAggregatedSum = encryptedSum;\r\n        emit AggregationComplete(encryptedSum);\r\n        return encryptedSum;\r\n    }\r\n\r\n    function getLastAggregatedSum() public view returns (string memory) {\r\n        return lastAggregatedSum;\r\n    }\r\n}\r\n",
  "sourcePath": "C:\\Users\\User\\Documents\\GitHub\\blockchain-crowdsensing\\contracts\\Crowdsensing.sol",
  "compiler": {
    "name": "solc",
    "version": "0.8.20+commit.a1b79de6.Emscripten.clang"
  },
  "schemaVersion": "3.4.16",
  "updatedAt": "2024-11-19T17:45:07.327Z",
  "networkType": "ethereum",
  "devdoc": {
    "kind": "dev",
    "methods": {},
    "version": 1
  },
  "userdoc": {
    "kind": "user",
    "methods": {},
    "version": 1
  }
}