{
  "contractName": "Crowdsensing",
  "abi": [
    {
      "inputs": [],
      "stateMutability": "nonpayable",
      "type": "constructor"
    },
    {
      "anonymous": false,
      "inputs": [
        {
          "indexed": false,
          "internalType": "string",
          "name": "encryptedSum",
          "type": "string"
        }
      ],
      "name": "AggregationComplete",
      "type": "event"
    },
    {
      "anonymous": false,
      "inputs": [
        {
          "indexed": true,
          "internalType": "address",
          "name": "provider",
          "type": "address"
        },
        {
          "indexed": false,
          "internalType": "string",
          "name": "encryptedData",
          "type": "string"
        },
        {
          "indexed": false,
          "internalType": "uint256",
          "name": "timestamp",
          "type": "uint256"
        }
      ],
      "name": "DataSubmitted",
      "type": "event"
    },
    {
      "inputs": [],
      "name": "dataCount",
      "outputs": [
        {
          "internalType": "uint256",
          "name": "",
          "type": "uint256"
        }
      ],
      "stateMutability": "view",
      "type": "function",
      "constant": true
    },
    {
      "inputs": [
        {
          "internalType": "address",
          "name": "",
          "type": "address"
        }
      ],
      "name": "dataProviders",
      "outputs": [
        {
          "internalType": "address",
          "name": "provider",
          "type": "address"
        },
        {
          "internalType": "bool",
          "name": "verified",
          "type": "bool"
        }
      ],
      "stateMutability": "view",
      "type": "function",
      "constant": true
    },
    {
      "inputs": [],
      "name": "owner",
      "outputs": [
        {
          "internalType": "address",
          "name": "",
          "type": "address"
        }
      ],
      "stateMutability": "view",
      "type": "function",
      "constant": true
    },
    {
      "inputs": [
        {
          "internalType": "string",
          "name": "encryptedData",
          "type": "string"
        }
      ],
      "name": "submitData",
      "outputs": [],
      "stateMutability": "nonpayable",
      "type": "function"
    },
    {
      "inputs": [
        {
          "internalType": "address[]",
          "name": "providerAddresses",
          "type": "address[]"
        }
      ],
      "name": "aggregateEncryptedData",
      "outputs": [
        {
          "internalType": "string",
          "name": "",
          "type": "string"
        }
      ],
      "stateMutability": "nonpayable",
      "type": "function"
    },
    {
      "inputs": [
        {
          "internalType": "address",
          "name": "provider",
          "type": "address"
        }
      ],
      "name": "getProviderData",
      "outputs": [
        {
          "components": [
            {
              "internalType": "string",
              "name": "encryptedData",
              "type": "string"
            },
            {
              "internalType": "uint256",
              "name": "timestamp",
              "type": "uint256"
            }
          ],
          "internalType": "struct Crowdsensing.DataEntry[]",
          "name": "",
          "type": "tuple[]"
        }
      ],
      "stateMutability": "view",
      "type": "function",
      "constant": true
    }
  ],
  "bytecode": "0x608060405234801561000f575f80fd5b50335f806101000a81548173ffffffffffffffffffffffffffffffffffffffff021916908373ffffffffffffffffffffffffffffffffffffffff1602179055506113928061005c5f395ff3fe608060405234801561000f575f80fd5b5060043610610060575f3560e01c80635da40c4714610064578063780aac03146100825780638da5cb5b146100b3578063934e4c47146100d1578063a2aac7ab14610101578063fc2d64e31461011d575b5f80fd5b61006c61014d565b60405161007991906107dd565b60405180910390f35b61009c60048036038101906100979190610861565b610153565b6040516100aa9291906108b5565b60405180910390f35b6100bb61019e565b6040516100c891906108dc565b60405180910390f35b6100eb60048036038101906100e69190610a45565b6101c1565b6040516100f89190610b06565b60405180910390f35b61011b60048036038101906101169190610bd6565b61047c565b005b61013760048036038101906101329190610861565b610690565b6040516101449190610d69565b60405180910390f35b60025481565b6001602052805f5260405f205f91509050805f015f9054906101000a900473ffffffffffffffffffffffffffffffffffffffff1690806002015f9054906101000a900460ff16905082565b5f8054906101000a900473ffffffffffffffffffffffffffffffffffffffff1681565b60605f8054906101000a900473ffffffffffffffffffffffffffffffffffffffff1673ffffffffffffffffffffffffffffffffffffffff163373ffffffffffffffffffffffffffffffffffffffff1614610250576040517f08c379a000000000000000000000000000000000000000000000000000000000815260040161024790610df9565b60405180910390fd5b5f825111610293576040517f08c379a000000000000000000000000000000000000000000000000000000000815260040161028a90610e61565b60405180910390fd5b60605f5b835181101561043b575f8482815181106102b4576102b3610e7f565b5b602002602001015190505f60015f8373ffffffffffffffffffffffffffffffffffffffff1673ffffffffffffffffffffffffffffffffffffffff1681526020019081526020015f206001018054905011610343576040517f08c379a000000000000000000000000000000000000000000000000000000000815260040161033a90610ef6565b60405180910390fd5b5f5b60015f8373ffffffffffffffffffffffffffffffffffffffff1673ffffffffffffffffffffffffffffffffffffffff1681526020019081526020015f2060010180549050811015610426578360015f8473ffffffffffffffffffffffffffffffffffffffff1673ffffffffffffffffffffffffffffffffffffffff1681526020019081526020015f2060010182815481106103e3576103e2610e7f565b5b905f5260205f2090600202015f0160405160200161040292919061103d565b6040516020818303038152906040529350808061041e9061108d565b915050610345565b505080806104339061108d565b915050610297565b507f87be4345c09fc044b8fd45b4e43cbac9444ca418fd7995fd1b49b41115bde6b58160405161046b9190610b06565b60405180910390a180915050919050565b5f73ffffffffffffffffffffffffffffffffffffffff1660015f3373ffffffffffffffffffffffffffffffffffffffff1673ffffffffffffffffffffffffffffffffffffffff1681526020019081526020015f205f015f9054906101000a900473ffffffffffffffffffffffffffffffffffffffff1673ffffffffffffffffffffffffffffffffffffffff160361058b573360015f3373ffffffffffffffffffffffffffffffffffffffff1673ffffffffffffffffffffffffffffffffffffffff1681526020019081526020015f205f015f6101000a81548173ffffffffffffffffffffffffffffffffffffffff021916908373ffffffffffffffffffffffffffffffffffffffff1602179055505b60015f3373ffffffffffffffffffffffffffffffffffffffff1673ffffffffffffffffffffffffffffffffffffffff1681526020019081526020015f20600101604051806040016040528083815260200142815250908060018154018082558091505060019003905f5260205f2090600202015f909190919091505f820151815f019081610619919061125f565b5060208201518160010155505060025f8154809291906106389061108d565b91905055503373ffffffffffffffffffffffffffffffffffffffff167f3971e098c45f3feb712d60efd8340aa0c84f780238bbb556ad318b18c85b99d2824260405161068592919061132e565b60405180910390a250565b606060015f8373ffffffffffffffffffffffffffffffffffffffff1673ffffffffffffffffffffffffffffffffffffffff1681526020019081526020015f20600101805480602002602001604051908101604052809291908181526020015f905b828210156107ba578382905f5260205f2090600202016040518060400160405290815f8201805461072190610f7b565b80601f016020809104026020016040519081016040528092919081815260200182805461074d90610f7b565b80156107985780601f1061076f57610100808354040283529160200191610798565b820191905f5260205f20905b81548152906001019060200180831161077b57829003601f168201915b50505050508152602001600182015481525050815260200190600101906106f1565b505050509050919050565b5f819050919050565b6107d7816107c5565b82525050565b5f6020820190506107f05f8301846107ce565b92915050565b5f604051905090565b5f80fd5b5f80fd5b5f73ffffffffffffffffffffffffffffffffffffffff82169050919050565b5f61083082610807565b9050919050565b61084081610826565b811461084a575f80fd5b50565b5f8135905061085b81610837565b92915050565b5f60208284031215610876576108756107ff565b5b5f6108838482850161084d565b91505092915050565b61089581610826565b82525050565b5f8115159050919050565b6108af8161089b565b82525050565b5f6040820190506108c85f83018561088c565b6108d560208301846108a6565b9392505050565b5f6020820190506108ef5f83018461088c565b92915050565b5f80fd5b5f601f19601f8301169050919050565b7f4e487b71000000000000000000000000000000000000000000000000000000005f52604160045260245ffd5b61093f826108f9565b810181811067ffffffffffffffff8211171561095e5761095d610909565b5b80604052505050565b5f6109706107f6565b905061097c8282610936565b919050565b5f67ffffffffffffffff82111561099b5761099a610909565b5b602082029050602081019050919050565b5f80fd5b5f6109c26109bd84610981565b610967565b905080838252602082019050602084028301858111156109e5576109e46109ac565b5b835b81811015610a0e57806109fa888261084d565b8452602084019350506020810190506109e7565b5050509392505050565b5f82601f830112610a2c57610a2b6108f5565b5b8135610a3c8482602086016109b0565b91505092915050565b5f60208284031215610a5a57610a596107ff565b5b5f82013567ffffffffffffffff811115610a7757610a76610803565b5b610a8384828501610a18565b91505092915050565b5f81519050919050565b5f82825260208201905092915050565b5f5b83811015610ac3578082015181840152602081019050610aa8565b5f8484015250505050565b5f610ad882610a8c565b610ae28185610a96565b9350610af2818560208601610aa6565b610afb816108f9565b840191505092915050565b5f6020820190508181035f830152610b1e8184610ace565b905092915050565b5f80fd5b5f67ffffffffffffffff821115610b4457610b43610909565b5b610b4d826108f9565b9050602081019050919050565b828183375f83830152505050565b5f610b7a610b7584610b2a565b610967565b905082815260208101848484011115610b9657610b95610b26565b5b610ba1848285610b5a565b509392505050565b5f82601f830112610bbd57610bbc6108f5565b5b8135610bcd848260208601610b68565b91505092915050565b5f60208284031215610beb57610bea6107ff565b5b5f82013567ffffffffffffffff811115610c0857610c07610803565b5b610c1484828501610ba9565b91505092915050565b5f81519050919050565b5f82825260208201905092915050565b5f819050602082019050919050565b5f82825260208201905092915050565b5f610c6082610a8c565b610c6a8185610c46565b9350610c7a818560208601610aa6565b610c83816108f9565b840191505092915050565b610c97816107c5565b82525050565b5f604083015f8301518482035f860152610cb78282610c56565b9150506020830151610ccc6020860182610c8e565b508091505092915050565b5f610ce28383610c9d565b905092915050565b5f602082019050919050565b5f610d0082610c1d565b610d0a8185610c27565b935083602082028501610d1c85610c37565b805f5b85811015610d575784840389528151610d388582610cd7565b9450610d4383610cea565b925060208a01995050600181019050610d1f565b50829750879550505050505092915050565b5f6020820190508181035f830152610d818184610cf6565b905092915050565b7f4f6e6c79206f776e65722063616e20706572666f726d207468697320616374695f8201527f6f6e000000000000000000000000000000000000000000000000000000000000602082015250565b5f610de3602283610a96565b9150610dee82610d89565b604082019050919050565b5f6020820190508181035f830152610e1081610dd7565b9050919050565b7f4e6f2070726f7669646572206164647265737365732070726f766964656400005f82015250565b5f610e4b601e83610a96565b9150610e5682610e17565b602082019050919050565b5f6020820190508181035f830152610e7881610e3f565b9050919050565b7f4e487b71000000000000000000000000000000000000000000000000000000005f52603260045260245ffd5b7f4e6f2064617461207375626d69747465640000000000000000000000000000005f82015250565b5f610ee0601183610a96565b9150610eeb82610eac565b602082019050919050565b5f6020820190508181035f830152610f0d81610ed4565b9050919050565b5f81905092915050565b5f610f2882610a8c565b610f328185610f14565b9350610f42818560208601610aa6565b80840191505092915050565b7f4e487b71000000000000000000000000000000000000000000000000000000005f52602260045260245ffd5b5f6002820490506001821680610f9257607f821691505b602082108103610fa557610fa4610f4e565b5b50919050565b5f819050815f5260205f209050919050565b5f8154610fc981610f7b565b610fd38186610f14565b9450600182165f8114610fed576001811461100257611034565b60ff1983168652811515820286019350611034565b61100b85610fab565b5f5b8381101561102c5781548189015260018201915060208101905061100d565b838801955050505b50505092915050565b5f6110488285610f1e565b91506110548284610fbd565b91508190509392505050565b7f4e487b71000000000000000000000000000000000000000000000000000000005f52601160045260245ffd5b5f611097826107c5565b91507fffffffffffffffffffffffffffffffffffffffffffffffffffffffffffffffff82036110c9576110c8611060565b5b600182019050919050565b5f6020601f8301049050919050565b5f82821b905092915050565b5f6008830261111e7fffffffffffffffffffffffffffffffffffffffffffffffffffffffffffffffff826110e3565b61112886836110e3565b95508019841693508086168417925050509392505050565b5f819050919050565b5f61116361115e611159846107c5565b611140565b6107c5565b9050919050565b5f819050919050565b61117c83611149565b6111906111888261116a565b8484546110ef565b825550505050565b5f90565b6111a4611198565b6111af818484611173565b505050565b5b818110156111d2576111c75f8261119c565b6001810190506111b5565b5050565b601f821115611217576111e881610fab565b6111f1846110d4565b81016020851015611200578190505b61121461120c856110d4565b8301826111b4565b50505b505050565b5f82821c905092915050565b5f6112375f198460080261121c565b1980831691505092915050565b5f61124f8383611228565b9150826002028217905092915050565b61126882610a8c565b67ffffffffffffffff81111561128157611280610909565b5b61128b8254610f7b565b6112968282856111d6565b5f60209050601f8311600181146112c7575f84156112b5578287015190505b6112bf8582611244565b865550611326565b601f1984166112d586610fab565b5f5b828110156112fc578489015182556001820191506020850194506020810190506112d7565b868310156113195784890151611315601f891682611228565b8355505b6001600288020188555050505b505050505050565b5f6040820190508181035f8301526113468185610ace565b905061135560208301846107ce565b939250505056fea264697066735822122073d467393e3525ae37eb1d105e74bae78ab1f998926091255a7fb3933b92e29564736f6c63430008140033",
  "immutableReferences": {},
  "source": "// SPDX-License-Identifier: MIT\r\npragma solidity ^0.8.0;\r\n\r\ncontract Crowdsensing {\r\n    struct DataEntry {\r\n        string encryptedData;\r\n        uint256 timestamp; // Store the timestamp of the submission\r\n    }\r\n\r\n    struct DataProvider {\r\n        address provider;\r\n        DataEntry[] submissions; // Store multiple submissions with timestamps\r\n        bool verified;\r\n    }\r\n\r\n    address public owner;\r\n    mapping(address => DataProvider) public dataProviders;\r\n    uint public dataCount;\r\n\r\n    event DataSubmitted(address indexed provider, string encryptedData, uint256 timestamp);\r\n    event AggregationComplete(string encryptedSum);\r\n\r\n    constructor() {\r\n        owner = msg.sender;\r\n    }\r\n\r\n    modifier onlyOwner() {\r\n        require(msg.sender == owner, \"Only owner can perform this action\");\r\n        _;\r\n    }\r\n\r\n    function submitData(string memory encryptedData) public {\r\n        // If the provider is submitting for the first time, initialize their data\r\n        if (dataProviders[msg.sender].provider == address(0)) {\r\n            dataProviders[msg.sender].provider = msg.sender;\r\n        }\r\n\r\n        // Add the new encrypted data with a timestamp\r\n        dataProviders[msg.sender].submissions.push(\r\n            DataEntry({encryptedData: encryptedData, timestamp: block.timestamp})\r\n        );\r\n        dataCount++;\r\n\r\n        emit DataSubmitted(msg.sender, encryptedData, block.timestamp);\r\n    }\r\n\r\n    function aggregateEncryptedData(\r\n        address[] memory providerAddresses\r\n    ) public onlyOwner returns (string memory) {\r\n        require(providerAddresses.length > 0, \"No provider addresses provided\");\r\n\r\n        string memory encryptedSum;\r\n\r\n        for (uint i = 0; i < providerAddresses.length; i++) {\r\n            address provider = providerAddresses[i];\r\n            require(\r\n                dataProviders[provider].submissions.length > 0,\r\n                \"No data submitted\"\r\n            );\r\n\r\n            // Concatenate all encrypted submissions for the provider\r\n            for (uint j = 0; j < dataProviders[provider].submissions.length; j++) {\r\n                encryptedSum = string(\r\n                    abi.encodePacked(\r\n                        encryptedSum,\r\n                        dataProviders[provider].submissions[j].encryptedData\r\n                    )\r\n                );\r\n            }\r\n        }\r\n\r\n        emit AggregationComplete(encryptedSum);\r\n        return encryptedSum;\r\n    }\r\n\r\n    function getProviderData(address provider) \r\n        public \r\n        view \r\n        returns (DataEntry[] memory) \r\n    {\r\n        return dataProviders[provider].submissions;\r\n    }\r\n}\r\n",
  "sourcePath": "C:\\Users\\User\\Documents\\GitHub\\blockchain-crowdsensing\\contracts\\Crowdsensing.sol",
  "compiler": {
    "name": "solc",
    "version": "0.8.20+commit.a1b79de6.Emscripten.clang"
  },
  "schemaVersion": "3.4.16",
  "updatedAt": "2024-10-19T17:19:26.237Z",
  "networkType": "ethereum",
  "devdoc": {
    "kind": "dev",
    "methods": {},
    "version": 1
  },
  "userdoc": {
    "kind": "user",
    "methods": {},
    "version": 1
  }
}