{
  "contractName": "Crowdsensing",
  "abi": [
    {
      "inputs": [],
      "stateMutability": "nonpayable",
      "type": "constructor"
    },
    {
      "anonymous": false,
      "inputs": [
        {
          "indexed": false,
          "internalType": "string",
          "name": "encryptedSum",
          "type": "string"
        }
      ],
      "name": "AggregationComplete",
      "type": "event"
    },
    {
      "anonymous": false,
      "inputs": [
        {
          "indexed": true,
          "internalType": "address",
          "name": "provider",
          "type": "address"
        },
        {
          "indexed": false,
          "internalType": "string",
          "name": "encryptedData",
          "type": "string"
        }
      ],
      "name": "DataSubmitted",
      "type": "event"
    },
    {
      "anonymous": false,
      "inputs": [
        {
          "indexed": true,
          "internalType": "address",
          "name": "provider",
          "type": "address"
        },
        {
          "indexed": false,
          "internalType": "uint256",
          "name": "amount",
          "type": "uint256"
        }
      ],
      "name": "RewardClaimed",
      "type": "event"
    },
    {
      "anonymous": false,
      "inputs": [
        {
          "indexed": true,
          "internalType": "address",
          "name": "provider",
          "type": "address"
        },
        {
          "indexed": false,
          "internalType": "uint256",
          "name": "amount",
          "type": "uint256"
        }
      ],
      "name": "RewardDistributed",
      "type": "event"
    },
    {
      "inputs": [],
      "name": "dataCount",
      "outputs": [
        {
          "internalType": "uint256",
          "name": "",
          "type": "uint256"
        }
      ],
      "stateMutability": "view",
      "type": "function",
      "constant": true
    },
    {
      "inputs": [
        {
          "internalType": "address",
          "name": "",
          "type": "address"
        }
      ],
      "name": "dataProviders",
      "outputs": [
        {
          "internalType": "address",
          "name": "provider",
          "type": "address"
        },
        {
          "internalType": "uint256",
          "name": "rewardBalance",
          "type": "uint256"
        },
        {
          "internalType": "bool",
          "name": "verified",
          "type": "bool"
        }
      ],
      "stateMutability": "view",
      "type": "function",
      "constant": true
    },
    {
      "inputs": [],
      "name": "lastAggregatedSum",
      "outputs": [
        {
          "internalType": "string",
          "name": "",
          "type": "string"
        }
      ],
      "stateMutability": "view",
      "type": "function",
      "constant": true
    },
    {
      "inputs": [],
      "name": "owner",
      "outputs": [
        {
          "internalType": "address",
          "name": "",
          "type": "address"
        }
      ],
      "stateMutability": "view",
      "type": "function",
      "constant": true
    },
    {
      "inputs": [
        {
          "internalType": "string",
          "name": "encryptedData",
          "type": "string"
        }
      ],
      "name": "submitData",
      "outputs": [],
      "stateMutability": "nonpayable",
      "type": "function"
    },
    {
      "inputs": [
        {
          "internalType": "address[]",
          "name": "providerAddresses",
          "type": "address[]"
        }
      ],
      "name": "aggregateEncryptedData",
      "outputs": [
        {
          "internalType": "string",
          "name": "",
          "type": "string"
        }
      ],
      "stateMutability": "nonpayable",
      "type": "function"
    },
    {
      "inputs": [],
      "name": "getLastAggregatedSum",
      "outputs": [
        {
          "internalType": "string",
          "name": "",
          "type": "string"
        }
      ],
      "stateMutability": "view",
      "type": "function",
      "constant": true
    }
  ],
  "bytecode": "0x608060405234801561000f575f80fd5b50335f806101000a81548173ffffffffffffffffffffffffffffffffffffffff021916908373ffffffffffffffffffffffffffffffffffffffff1602179055506111f88061005c5f395ff3fe608060405234801561000f575f80fd5b506004361061007b575f3560e01c8063780aac0311610059578063780aac03146100d95780638da5cb5b1461010b578063934e4c4714610129578063a2aac7ab146101595761007b565b80630bb0a1521461007f5780635da40c471461009d57806361822015146100bb575b5f80fd5b610087610175565b6040516100949190610841565b60405180910390f35b6100a5610201565b6040516100b29190610879565b60405180910390f35b6100c3610207565b6040516100d09190610841565b60405180910390f35b6100f360048036038101906100ee91906108fd565b610297565b60405161010293929190610951565b60405180910390f35b6101136102e8565b6040516101209190610986565b60405180910390f35b610143600480360381019061013e9190610adf565b61030b565b6040516101509190610841565b60405180910390f35b610173600480360381019061016e9190610bd6565b6105d0565b005b6003805461018290610c4a565b80601f01602080910402602001604051908101604052809291908181526020018280546101ae90610c4a565b80156101f95780601f106101d0576101008083540402835291602001916101f9565b820191905f5260205f20905b8154815290600101906020018083116101dc57829003601f168201915b505050505081565b60025481565b60606003805461021690610c4a565b80601f016020809104026020016040519081016040528092919081815260200182805461024290610c4a565b801561028d5780601f106102645761010080835404028352916020019161028d565b820191905f5260205f20905b81548152906001019060200180831161027057829003601f168201915b5050505050905090565b6001602052805f5260405f205f91509050805f015f9054906101000a900473ffffffffffffffffffffffffffffffffffffffff1690806002015490806003015f9054906101000a900460ff16905083565b5f8054906101000a900473ffffffffffffffffffffffffffffffffffffffff1681565b60605f8054906101000a900473ffffffffffffffffffffffffffffffffffffffff1673ffffffffffffffffffffffffffffffffffffffff163373ffffffffffffffffffffffffffffffffffffffff161461039a576040517f08c379a000000000000000000000000000000000000000000000000000000000815260040161039190610cea565b60405180910390fd5b5f8251116103dd576040517f08c379a00000000000000000000000000000000000000000000000000000000081526004016103d490610d52565b60405180910390fd5b60605f5b835181101561057f575f8482815181106103fe576103fd610d70565b5b602002602001015190505f60015f8373ffffffffffffffffffffffffffffffffffffffff1673ffffffffffffffffffffffffffffffffffffffff1681526020019081526020015f20600101805490501161048d576040517f08c379a000000000000000000000000000000000000000000000000000000000815260040161048490610de7565b60405180910390fd5b5f5b60015f8373ffffffffffffffffffffffffffffffffffffffff1673ffffffffffffffffffffffffffffffffffffffff1681526020019081526020015f206001018054905081101561056a578360015f8473ffffffffffffffffffffffffffffffffffffffff1673ffffffffffffffffffffffffffffffffffffffff1681526020019081526020015f20600101828154811061052d5761052c610d70565b5b905f5260205f2001604051602001610546929190610ed1565b6040516020818303038152906040529350808061056290610f21565b91505061048f565b5050808061057790610f21565b9150506103e1565b50806003908161058f91906110f3565b507f87be4345c09fc044b8fd45b4e43cbac9444ca418fd7995fd1b49b41115bde6b5816040516105bf9190610841565b60405180910390a180915050919050565b5f73ffffffffffffffffffffffffffffffffffffffff1660015f3373ffffffffffffffffffffffffffffffffffffffff1673ffffffffffffffffffffffffffffffffffffffff1681526020019081526020015f205f015f9054906101000a900473ffffffffffffffffffffffffffffffffffffffff1673ffffffffffffffffffffffffffffffffffffffff16036106df573360015f3373ffffffffffffffffffffffffffffffffffffffff1673ffffffffffffffffffffffffffffffffffffffff1681526020019081526020015f205f015f6101000a81548173ffffffffffffffffffffffffffffffffffffffff021916908373ffffffffffffffffffffffffffffffffffffffff1602179055505b60015f3373ffffffffffffffffffffffffffffffffffffffff1673ffffffffffffffffffffffffffffffffffffffff1681526020019081526020015f2060010181908060018154018082558091505060019003905f5260205f20015f90919091909150908161074e91906110f3565b5060025f81548092919061076190610f21565b91905055503373ffffffffffffffffffffffffffffffffffffffff167f609f5e609ad3d82219984fd111ae09ae5bb8c677c16ca76755508d98eaf52e36826040516107ac9190610841565b60405180910390a250565b5f81519050919050565b5f82825260208201905092915050565b5f5b838110156107ee5780820151818401526020810190506107d3565b5f8484015250505050565b5f601f19601f8301169050919050565b5f610813826107b7565b61081d81856107c1565b935061082d8185602086016107d1565b610836816107f9565b840191505092915050565b5f6020820190508181035f8301526108598184610809565b905092915050565b5f819050919050565b61087381610861565b82525050565b5f60208201905061088c5f83018461086a565b92915050565b5f604051905090565b5f80fd5b5f80fd5b5f73ffffffffffffffffffffffffffffffffffffffff82169050919050565b5f6108cc826108a3565b9050919050565b6108dc816108c2565b81146108e6575f80fd5b50565b5f813590506108f7816108d3565b92915050565b5f602082840312156109125761091161089b565b5b5f61091f848285016108e9565b91505092915050565b610931816108c2565b82525050565b5f8115159050919050565b61094b81610937565b82525050565b5f6060820190506109645f830186610928565b610971602083018561086a565b61097e6040830184610942565b949350505050565b5f6020820190506109995f830184610928565b92915050565b5f80fd5b7f4e487b71000000000000000000000000000000000000000000000000000000005f52604160045260245ffd5b6109d9826107f9565b810181811067ffffffffffffffff821117156109f8576109f76109a3565b5b80604052505050565b5f610a0a610892565b9050610a1682826109d0565b919050565b5f67ffffffffffffffff821115610a3557610a346109a3565b5b602082029050602081019050919050565b5f80fd5b5f610a5c610a5784610a1b565b610a01565b90508083825260208201905060208402830185811115610a7f57610a7e610a46565b5b835b81811015610aa85780610a9488826108e9565b845260208401935050602081019050610a81565b5050509392505050565b5f82601f830112610ac657610ac561099f565b5b8135610ad6848260208601610a4a565b91505092915050565b5f60208284031215610af457610af361089b565b5b5f82013567ffffffffffffffff811115610b1157610b1061089f565b5b610b1d84828501610ab2565b91505092915050565b5f80fd5b5f67ffffffffffffffff821115610b4457610b436109a3565b5b610b4d826107f9565b9050602081019050919050565b828183375f83830152505050565b5f610b7a610b7584610b2a565b610a01565b905082815260208101848484011115610b9657610b95610b26565b5b610ba1848285610b5a565b509392505050565b5f82601f830112610bbd57610bbc61099f565b5b8135610bcd848260208601610b68565b91505092915050565b5f60208284031215610beb57610bea61089b565b5b5f82013567ffffffffffffffff811115610c0857610c0761089f565b5b610c1484828501610ba9565b91505092915050565b7f4e487b71000000000000000000000000000000000000000000000000000000005f52602260045260245ffd5b5f6002820490506001821680610c6157607f821691505b602082108103610c7457610c73610c1d565b5b50919050565b7f4f6e6c79206f776e65722063616e20706572666f726d207468697320616374695f8201527f6f6e000000000000000000000000000000000000000000000000000000000000602082015250565b5f610cd46022836107c1565b9150610cdf82610c7a565b604082019050919050565b5f6020820190508181035f830152610d0181610cc8565b9050919050565b7f4e6f2070726f7669646572206164647265737365732070726f766964656400005f82015250565b5f610d3c601e836107c1565b9150610d4782610d08565b602082019050919050565b5f6020820190508181035f830152610d6981610d30565b9050919050565b7f4e487b71000000000000000000000000000000000000000000000000000000005f52603260045260245ffd5b7f4e6f2064617461207375626d69747465640000000000000000000000000000005f82015250565b5f610dd16011836107c1565b9150610ddc82610d9d565b602082019050919050565b5f6020820190508181035f830152610dfe81610dc5565b9050919050565b5f81905092915050565b5f610e19826107b7565b610e238185610e05565b9350610e338185602086016107d1565b80840191505092915050565b5f819050815f5260205f209050919050565b5f8154610e5d81610c4a565b610e678186610e05565b9450600182165f8114610e815760018114610e9657610ec8565b60ff1983168652811515820286019350610ec8565b610e9f85610e3f565b5f5b83811015610ec057815481890152600182019150602081019050610ea1565b838801955050505b50505092915050565b5f610edc8285610e0f565b9150610ee88284610e51565b91508190509392505050565b7f4e487b71000000000000000000000000000000000000000000000000000000005f52601160045260245ffd5b5f610f2b82610861565b91507fffffffffffffffffffffffffffffffffffffffffffffffffffffffffffffffff8203610f5d57610f5c610ef4565b5b600182019050919050565b5f6020601f8301049050919050565b5f82821b905092915050565b5f60088302610fb27fffffffffffffffffffffffffffffffffffffffffffffffffffffffffffffffff82610f77565b610fbc8683610f77565b95508019841693508086168417925050509392505050565b5f819050919050565b5f610ff7610ff2610fed84610861565b610fd4565b610861565b9050919050565b5f819050919050565b61101083610fdd565b61102461101c82610ffe565b848454610f83565b825550505050565b5f90565b61103861102c565b611043818484611007565b505050565b5b818110156110665761105b5f82611030565b600181019050611049565b5050565b601f8211156110ab5761107c81610e3f565b61108584610f68565b81016020851015611094578190505b6110a86110a085610f68565b830182611048565b50505b505050565b5f82821c905092915050565b5f6110cb5f19846008026110b0565b1980831691505092915050565b5f6110e383836110bc565b9150826002028217905092915050565b6110fc826107b7565b67ffffffffffffffff811115611115576111146109a3565b5b61111f8254610c4a565b61112a82828561106a565b5f60209050601f83116001811461115b575f8415611149578287015190505b61115385826110d8565b8655506111ba565b601f19841661116986610e3f565b5f5b828110156111905784890151825560018201915060208501945060208101905061116b565b868310156111ad57848901516111a9601f8916826110bc565b8355505b6001600288020188555050505b50505050505056fea2646970667358221220c801d6c17c64c5ef1a8b278e4a7fcee1becd269986c0c70b943deb8f80bf028064736f6c63430008140033",
  "immutableReferences": {},
  "source": "// SPDX-License-Identifier: MIT\r\npragma solidity ^0.8.0;\r\n\r\ncontract Crowdsensing {\r\n    struct DataProvider {\r\n        address provider;\r\n        string[] encryptedData;\r\n        uint rewardBalance; \r\n        bool verified;\r\n    }\r\n\r\n    address public owner;\r\n    mapping(address => DataProvider) public dataProviders;\r\n    uint public dataCount;\r\n    string public lastAggregatedSum;\r\n\r\n    event DataSubmitted(address indexed provider, string encryptedData);\r\n    event AggregationComplete(string encryptedSum);\r\n    event RewardDistributed(address indexed provider, uint amount);\r\n    event RewardClaimed(address indexed provider, uint amount);\r\n\r\n    constructor() {\r\n        owner = msg.sender;\r\n    }\r\n\r\n    modifier onlyOwner() {\r\n        require(msg.sender == owner, \"Only owner can perform this action\");\r\n        _;\r\n    }\r\n\r\n    function submitData(string memory encryptedData) public {\r\n        if (dataProviders[msg.sender].provider == address(0)) {\r\n            dataProviders[msg.sender].provider = msg.sender;\r\n        }\r\n        dataProviders[msg.sender].encryptedData.push(encryptedData);\r\n        dataCount++;\r\n        emit DataSubmitted(msg.sender, encryptedData);\r\n    }\r\n\r\n    function aggregateEncryptedData(\r\n        address[] memory providerAddresses\r\n    ) public onlyOwner returns (string memory) {\r\n        require(providerAddresses.length > 0, \"No provider addresses provided\");\r\n\r\n        string memory encryptedSum;\r\n        for (uint i = 0; i < providerAddresses.length; i++) {\r\n            address provider = providerAddresses[i];\r\n            require(\r\n                dataProviders[provider].encryptedData.length > 0,\r\n                \"No data submitted\"\r\n            );\r\n            for (uint j = 0; j < dataProviders[provider].encryptedData.length; j++) {\r\n                encryptedSum = string(\r\n                    abi.encodePacked(\r\n                        encryptedSum,\r\n                        dataProviders[provider].encryptedData[j]\r\n                    )\r\n                );\r\n            }\r\n        }\r\n        lastAggregatedSum = encryptedSum;\r\n        emit AggregationComplete(encryptedSum);\r\n        return encryptedSum;\r\n    }\r\n\r\n    function getLastAggregatedSum() public view returns (string memory) {\r\n        return lastAggregatedSum;\r\n    }\r\n\r\n    // function distributeRewards(\r\n    //     address[] memory providerAddresses,\r\n    //     uint[] memory rewardAmounts\r\n    // ) public payable onlyOwner {\r\n    //     require(\r\n    //         providerAddresses.length == rewardAmounts.length,\r\n    //         \"Mismatch between addresses and rewards\"\r\n    //     );\r\n\r\n    //     uint totalReward = 0;\r\n    //     for (uint i = 0; i < rewardAmounts.length; i++) {\r\n    //         totalReward += rewardAmounts[i];\r\n    //     }\r\n\r\n    //     require(\r\n    //         msg.value == totalReward,\r\n    //         \"Insufficient Ether sent for rewards\"\r\n    //     );\r\n\r\n    //     for (uint i = 0; i < providerAddresses.length; i++) {\r\n    //         address provider = providerAddresses[i];\r\n    //         require(\r\n    //             dataProviders[provider].provider != address(0),\r\n    //             \"Provider not found\"\r\n    //         );\r\n    //         dataProviders[provider].rewardBalance += rewardAmounts[i];\r\n    //         emit RewardDistributed(provider, rewardAmounts[i]);\r\n    //     }\r\n    // }\r\n\r\n    // function claimReward() public {\r\n    //     uint reward = dataProviders[msg.sender].rewardBalance;\r\n    //     require(reward > 0, \"No rewards available to claim\");\r\n    //     require(address(this).balance >= reward, \"Insufficient contract balance\");\r\n\r\n    //     dataProviders[msg.sender].rewardBalance = 0;\r\n    //     payable(msg.sender).transfer(reward);\r\n\r\n    //     emit RewardClaimed(msg.sender, reward);\r\n    // }\r\n\r\n    // function getRewardBalance(address provider) public view returns (uint) {\r\n    //     return dataProviders[provider].rewardBalance;\r\n    // }\r\n\r\n\r\n    // receive() external payable {}\r\n}\r\n",
  "sourcePath": "C:\\Users\\User\\Documents\\GitHub\\blockchain-crowdsensing\\contracts\\Crowdsensing.sol",
  "compiler": {
    "name": "solc",
    "version": "0.8.20+commit.a1b79de6.Emscripten.clang"
  },
  "schemaVersion": "3.4.16",
  "updatedAt": "2024-11-23T09:00:49.346Z",
  "networkType": "ethereum",
  "devdoc": {
    "kind": "dev",
    "methods": {},
    "version": 1
  },
  "userdoc": {
    "kind": "user",
    "methods": {},
    "version": 1
  }
}