{
  "contractName": "Crowdsensing",
  "abi": [
    {
      "inputs": [],
      "stateMutability": "nonpayable",
      "type": "constructor"
    },
    {
      "anonymous": false,
      "inputs": [
        {
          "indexed": false,
          "internalType": "string",
          "name": "encryptedSum",
          "type": "string"
        }
      ],
      "name": "AggregationComplete",
      "type": "event"
    },
    {
      "anonymous": false,
      "inputs": [
        {
          "indexed": true,
          "internalType": "address",
          "name": "provider",
          "type": "address"
        },
        {
          "indexed": false,
          "internalType": "string",
          "name": "encryptedData",
          "type": "string"
        }
      ],
      "name": "DataSubmitted",
      "type": "event"
    },
    {
      "inputs": [],
      "name": "dataCount",
      "outputs": [
        {
          "internalType": "uint256",
          "name": "",
          "type": "uint256"
        }
      ],
      "stateMutability": "view",
      "type": "function",
      "constant": true
    },
    {
      "inputs": [
        {
          "internalType": "address",
          "name": "",
          "type": "address"
        }
      ],
      "name": "dataProviders",
      "outputs": [
        {
          "internalType": "address",
          "name": "provider",
          "type": "address"
        },
        {
          "internalType": "string",
          "name": "encryptedData",
          "type": "string"
        },
        {
          "internalType": "bool",
          "name": "verified",
          "type": "bool"
        }
      ],
      "stateMutability": "view",
      "type": "function",
      "constant": true
    },
    {
      "inputs": [],
      "name": "encryptedSum",
      "outputs": [
        {
          "internalType": "string",
          "name": "",
          "type": "string"
        }
      ],
      "stateMutability": "view",
      "type": "function",
      "constant": true
    },
    {
      "inputs": [],
      "name": "owner",
      "outputs": [
        {
          "internalType": "address",
          "name": "",
          "type": "address"
        }
      ],
      "stateMutability": "view",
      "type": "function",
      "constant": true
    },
    {
      "inputs": [
        {
          "internalType": "uint256",
          "name": "",
          "type": "uint256"
        }
      ],
      "name": "providerAddresses",
      "outputs": [
        {
          "internalType": "address",
          "name": "",
          "type": "address"
        }
      ],
      "stateMutability": "view",
      "type": "function",
      "constant": true
    },
    {
      "inputs": [
        {
          "internalType": "address",
          "name": "provider",
          "type": "address"
        }
      ],
      "name": "registerProvider",
      "outputs": [],
      "stateMutability": "nonpayable",
      "type": "function"
    },
    {
      "inputs": [
        {
          "internalType": "string",
          "name": "encryptedData",
          "type": "string"
        }
      ],
      "name": "submitData",
      "outputs": [],
      "stateMutability": "nonpayable",
      "type": "function"
    },
    {
      "inputs": [],
      "name": "aggregateEncryptedData",
      "outputs": [],
      "stateMutability": "nonpayable",
      "type": "function"
    },
    {
      "inputs": [],
      "name": "getEncryptedSum",
      "outputs": [
        {
          "internalType": "string",
          "name": "",
          "type": "string"
        }
      ],
      "stateMutability": "view",
      "type": "function",
      "constant": true
    }
  ],
  "bytecode": "0x608060405234801561000f575f80fd5b50335f806101000a81548173ffffffffffffffffffffffffffffffffffffffff021916908373ffffffffffffffffffffffffffffffffffffffff1602179055505f60038190555061128a806100635f395ff3fe608060405234801561000f575f80fd5b5060043610610091575f3560e01c8063780aac0311610064578063780aac031461011d578063794f2d581461014f5780638da5cb5b14610159578063a2aac7ab14610177578063e096dd251461019357610091565b80630e26001614610095578063323998af146100b15780635da40c47146100cf578063618dd9a8146100ed575b5f80fd5b6100af60048036038101906100aa919061095a565b6101b1565b005b6100b961039b565b6040516100c69190610a0f565b60405180910390f35b6100d7610427565b6040516100e49190610a47565b60405180910390f35b61010760048036038101906101029190610a8a565b61042d565b6040516101149190610ac4565b60405180910390f35b6101376004803603810190610132919061095a565b610468565b60405161014693929190610af7565b60405180910390f35b61015761053f565b005b6101616106f8565b60405161016e9190610ac4565b60405180910390f35b610191600480360381019061018c9190610c5f565b61071b565b005b61019b61085f565b6040516101a89190610a0f565b60405180910390f35b5f8054906101000a900473ffffffffffffffffffffffffffffffffffffffff1673ffffffffffffffffffffffffffffffffffffffff163373ffffffffffffffffffffffffffffffffffffffff161461023e576040517f08c379a000000000000000000000000000000000000000000000000000000000815260040161023590610d16565b60405180910390fd5b60405180606001604052808273ffffffffffffffffffffffffffffffffffffffff16815260200160405180602001604052805f81525081526020015f151581525060015f8373ffffffffffffffffffffffffffffffffffffffff1673ffffffffffffffffffffffffffffffffffffffff1681526020019081526020015f205f820151815f015f6101000a81548173ffffffffffffffffffffffffffffffffffffffff021916908373ffffffffffffffffffffffffffffffffffffffff16021790555060208201518160010190816103159190610f2e565b506040820151816002015f6101000a81548160ff021916908315150217905550905050600281908060018154018082558091505060019003905f5260205f20015f9091909190916101000a81548173ffffffffffffffffffffffffffffffffffffffff021916908373ffffffffffffffffffffffffffffffffffffffff16021790555050565b600480546103a890610d61565b80601f01602080910402602001604051908101604052809291908181526020018280546103d490610d61565b801561041f5780601f106103f65761010080835404028352916020019161041f565b820191905f5260205f20905b81548152906001019060200180831161040257829003601f168201915b505050505081565b60035481565b6002818154811061043c575f80fd5b905f5260205f20015f915054906101000a900473ffffffffffffffffffffffffffffffffffffffff1681565b6001602052805f5260405f205f91509050805f015f9054906101000a900473ffffffffffffffffffffffffffffffffffffffff16908060010180546104ac90610d61565b80601f01602080910402602001604051908101604052809291908181526020018280546104d890610d61565b80156105235780601f106104fa57610100808354040283529160200191610523565b820191905f5260205f20905b81548152906001019060200180831161050657829003601f168201915b505050505090806002015f9054906101000a900460ff16905083565b5f8054906101000a900473ffffffffffffffffffffffffffffffffffffffff1673ffffffffffffffffffffffffffffffffffffffff163373ffffffffffffffffffffffffffffffffffffffff16146105cc576040517f08c379a00000000000000000000000000000000000000000000000000000000081526004016105c390610d16565b60405180910390fd5b60405180602001604052805f815250600490816105e99190610f2e565b505f5b6002805490508110156106bd575f6002828154811061060e5761060d610ffd565b5b905f5260205f20015f9054906101000a900473ffffffffffffffffffffffffffffffffffffffff169050600460015f8373ffffffffffffffffffffffffffffffffffffffff1673ffffffffffffffffffffffffffffffffffffffff1681526020019081526020015f2060010160405160200161068b9291906110b4565b604051602081830303815290604052600490816106a89190610f2e565b505080806106b590611104565b9150506105ec565b507f87be4345c09fc044b8fd45b4e43cbac9444ca418fd7995fd1b49b41115bde6b560046040516106ee91906111cc565b60405180910390a1565b5f8054906101000a900473ffffffffffffffffffffffffffffffffffffffff1681565b5f60015f3373ffffffffffffffffffffffffffffffffffffffff1673ffffffffffffffffffffffffffffffffffffffff1681526020019081526020015f20600101805461076790610d61565b9050146107a9576040517f08c379a00000000000000000000000000000000000000000000000000000000081526004016107a090611236565b60405180910390fd5b8060015f3373ffffffffffffffffffffffffffffffffffffffff1673ffffffffffffffffffffffffffffffffffffffff1681526020019081526020015f2060010190816107f69190610f2e565b5060035f81548092919061080990611104565b91905055503373ffffffffffffffffffffffffffffffffffffffff167f609f5e609ad3d82219984fd111ae09ae5bb8c677c16ca76755508d98eaf52e36826040516108549190610a0f565b60405180910390a250565b60606004805461086e90610d61565b80601f016020809104026020016040519081016040528092919081815260200182805461089a90610d61565b80156108e55780601f106108bc576101008083540402835291602001916108e5565b820191905f5260205f20905b8154815290600101906020018083116108c857829003601f168201915b5050505050905090565b5f604051905090565b5f80fd5b5f80fd5b5f73ffffffffffffffffffffffffffffffffffffffff82169050919050565b5f61092982610900565b9050919050565b6109398161091f565b8114610943575f80fd5b50565b5f8135905061095481610930565b92915050565b5f6020828403121561096f5761096e6108f8565b5b5f61097c84828501610946565b91505092915050565b5f81519050919050565b5f82825260208201905092915050565b5f5b838110156109bc5780820151818401526020810190506109a1565b5f8484015250505050565b5f601f19601f8301169050919050565b5f6109e182610985565b6109eb818561098f565b93506109fb81856020860161099f565b610a04816109c7565b840191505092915050565b5f6020820190508181035f830152610a2781846109d7565b905092915050565b5f819050919050565b610a4181610a2f565b82525050565b5f602082019050610a5a5f830184610a38565b92915050565b610a6981610a2f565b8114610a73575f80fd5b50565b5f81359050610a8481610a60565b92915050565b5f60208284031215610a9f57610a9e6108f8565b5b5f610aac84828501610a76565b91505092915050565b610abe8161091f565b82525050565b5f602082019050610ad75f830184610ab5565b92915050565b5f8115159050919050565b610af181610add565b82525050565b5f606082019050610b0a5f830186610ab5565b8181036020830152610b1c81856109d7565b9050610b2b6040830184610ae8565b949350505050565b5f80fd5b5f80fd5b7f4e487b71000000000000000000000000000000000000000000000000000000005f52604160045260245ffd5b610b71826109c7565b810181811067ffffffffffffffff82111715610b9057610b8f610b3b565b5b80604052505050565b5f610ba26108ef565b9050610bae8282610b68565b919050565b5f67ffffffffffffffff821115610bcd57610bcc610b3b565b5b610bd6826109c7565b9050602081019050919050565b828183375f83830152505050565b5f610c03610bfe84610bb3565b610b99565b905082815260208101848484011115610c1f57610c1e610b37565b5b610c2a848285610be3565b509392505050565b5f82601f830112610c4657610c45610b33565b5b8135610c56848260208601610bf1565b91505092915050565b5f60208284031215610c7457610c736108f8565b5b5f82013567ffffffffffffffff811115610c9157610c906108fc565b5b610c9d84828501610c32565b91505092915050565b7f4f6e6c79206f776e65722063616e20706572666f726d207468697320616374695f8201527f6f6e000000000000000000000000000000000000000000000000000000000000602082015250565b5f610d0060228361098f565b9150610d0b82610ca6565b604082019050919050565b5f6020820190508181035f830152610d2d81610cf4565b9050919050565b7f4e487b71000000000000000000000000000000000000000000000000000000005f52602260045260245ffd5b5f6002820490506001821680610d7857607f821691505b602082108103610d8b57610d8a610d34565b5b50919050565b5f819050815f5260205f209050919050565b5f6020601f8301049050919050565b5f82821b905092915050565b5f60088302610ded7fffffffffffffffffffffffffffffffffffffffffffffffffffffffffffffffff82610db2565b610df78683610db2565b95508019841693508086168417925050509392505050565b5f819050919050565b5f610e32610e2d610e2884610a2f565b610e0f565b610a2f565b9050919050565b5f819050919050565b610e4b83610e18565b610e5f610e5782610e39565b848454610dbe565b825550505050565b5f90565b610e73610e67565b610e7e818484610e42565b505050565b5b81811015610ea157610e965f82610e6b565b600181019050610e84565b5050565b601f821115610ee657610eb781610d91565b610ec084610da3565b81016020851015610ecf578190505b610ee3610edb85610da3565b830182610e83565b50505b505050565b5f82821c905092915050565b5f610f065f1984600802610eeb565b1980831691505092915050565b5f610f1e8383610ef7565b9150826002028217905092915050565b610f3782610985565b67ffffffffffffffff811115610f5057610f4f610b3b565b5b610f5a8254610d61565b610f65828285610ea5565b5f60209050601f831160018114610f96575f8415610f84578287015190505b610f8e8582610f13565b865550610ff5565b601f198416610fa486610d91565b5f5b82811015610fcb57848901518255600182019150602085019450602081019050610fa6565b86831015610fe85784890151610fe4601f891682610ef7565b8355505b6001600288020188555050505b505050505050565b7f4e487b71000000000000000000000000000000000000000000000000000000005f52603260045260245ffd5b5f81905092915050565b5f815461104081610d61565b61104a818661102a565b9450600182165f81146110645760018114611079576110ab565b60ff19831686528115158202860193506110ab565b61108285610d91565b5f5b838110156110a357815481890152600182019150602081019050611084565b838801955050505b50505092915050565b5f6110bf8285611034565b91506110cb8284611034565b91508190509392505050565b7f4e487b71000000000000000000000000000000000000000000000000000000005f52601160045260245ffd5b5f61110e82610a2f565b91507fffffffffffffffffffffffffffffffffffffffffffffffffffffffffffffffff82036111405761113f6110d7565b5b600182019050919050565b5f815461115781610d61565b611161818661098f565b9450600182165f811461117b5760018114611191576111c3565b60ff1983168652811515602002860193506111c3565b61119a85610d91565b5f5b838110156111bb5781548189015260018201915060208101905061119c565b808801955050505b50505092915050565b5f6020820190508181035f8301526111e4818461114b565b905092915050565b7f4461746120616c7265616479207375626d6974746564000000000000000000005f82015250565b5f61122060168361098f565b915061122b826111ec565b602082019050919050565b5f6020820190508181035f83015261124d81611214565b905091905056fea2646970667358221220ac06a79a564ed444ee4d73fb6435c52fe6e1b669af00b868ce7639a8afe1485f64736f6c63430008140033",
  "immutableReferences": {},
  "source": "// SPDX-License-Identifier: MIT\r\npragma solidity ^0.8.0;\r\n\r\ncontract Crowdsensing {\r\n    struct DataProvider {\r\n        address provider;\r\n        string encryptedData;\r\n        bool verified;\r\n    }\r\n\r\n    address public owner;\r\n    mapping(address => DataProvider) public dataProviders;\r\n    address[] public providerAddresses; // Array to store provider addresses\r\n    uint public dataCount;\r\n    string public encryptedSum;  // Store the encrypted aggregated sum\r\n\r\n    event DataSubmitted(address indexed provider, string encryptedData);\r\n    event AggregationComplete(string encryptedSum);\r\n\r\n    constructor() {\r\n        owner = msg.sender;\r\n        dataCount = 0;\r\n    }\r\n\r\n    modifier onlyOwner() {\r\n        require(msg.sender == owner, \"Only owner can perform this action\");\r\n        _;\r\n    }\r\n\r\n    // Register a data provider\r\n    function registerProvider(address provider) public onlyOwner {\r\n        dataProviders[provider] = DataProvider(provider, \"\", false);\r\n        providerAddresses.push(provider);  // Track provider address\r\n    }\r\n\r\n    // Submit encrypted data\r\n    function submitData(string memory encryptedData) public {\r\n        require(bytes(dataProviders[msg.sender].encryptedData).length == 0, \"Data already submitted\");\r\n        dataProviders[msg.sender].encryptedData = encryptedData;\r\n        dataCount++;\r\n        emit DataSubmitted(msg.sender, encryptedData);\r\n    }\r\n\r\n    // Aggregate encrypted data (to be called after all submissions)\r\n    function aggregateEncryptedData() public onlyOwner {\r\n        encryptedSum = \"\";  // Reset encryptedSum before aggregation\r\n        for (uint i = 0; i < providerAddresses.length; i++) {\r\n            address provider = providerAddresses[i];\r\n            encryptedSum = string(abi.encodePacked(encryptedSum, dataProviders[provider].encryptedData));\r\n        }\r\n        emit AggregationComplete(encryptedSum);\r\n    }\r\n\r\n    // Get the aggregated encrypted sum\r\n    function getEncryptedSum() public view returns (string memory) {\r\n        return encryptedSum;\r\n    }\r\n}\r\n",
  "sourcePath": "C:\\Users\\User\\Documents\\GitHub\\blockchain-crowdsensing\\contracts\\Crowdsensing.sol",
  "compiler": {
    "name": "solc",
    "version": "0.8.20+commit.a1b79de6.Emscripten.clang"
  },
  "schemaVersion": "3.4.16",
  "updatedAt": "2024-10-18T11:43:32.955Z",
  "networkType": "ethereum",
  "devdoc": {
    "kind": "dev",
    "methods": {},
    "version": 1
  },
  "userdoc": {
    "kind": "user",
    "methods": {},
    "version": 1
  }
}