{
  "contractName": "Crowdsensing",
  "abi": [
    {
      "inputs": [],
      "stateMutability": "nonpayable",
      "type": "constructor"
    },
    {
      "anonymous": false,
      "inputs": [
        {
          "indexed": true,
          "internalType": "address",
          "name": "provider",
          "type": "address"
        },
        {
          "indexed": false,
          "internalType": "string",
          "name": "encryptedData",
          "type": "string"
        }
      ],
      "name": "DataSubmitted",
      "type": "event"
    },
    {
      "anonymous": false,
      "inputs": [
        {
          "indexed": true,
          "internalType": "address",
          "name": "provider",
          "type": "address"
        },
        {
          "indexed": false,
          "internalType": "bool",
          "name": "verified",
          "type": "bool"
        }
      ],
      "name": "DataVerified",
      "type": "event"
    },
    {
      "inputs": [],
      "name": "dataCount",
      "outputs": [
        {
          "internalType": "uint256",
          "name": "",
          "type": "uint256"
        }
      ],
      "stateMutability": "view",
      "type": "function",
      "constant": true
    },
    {
      "inputs": [
        {
          "internalType": "address",
          "name": "",
          "type": "address"
        }
      ],
      "name": "dataProviders",
      "outputs": [
        {
          "internalType": "address",
          "name": "provider",
          "type": "address"
        },
        {
          "internalType": "string",
          "name": "encryptedData",
          "type": "string"
        },
        {
          "internalType": "bool",
          "name": "verified",
          "type": "bool"
        }
      ],
      "stateMutability": "view",
      "type": "function",
      "constant": true
    },
    {
      "inputs": [],
      "name": "owner",
      "outputs": [
        {
          "internalType": "address",
          "name": "",
          "type": "address"
        }
      ],
      "stateMutability": "view",
      "type": "function",
      "constant": true
    },
    {
      "inputs": [
        {
          "internalType": "address",
          "name": "provider",
          "type": "address"
        }
      ],
      "name": "registerProvider",
      "outputs": [],
      "stateMutability": "nonpayable",
      "type": "function"
    },
    {
      "inputs": [
        {
          "internalType": "string",
          "name": "encryptedData",
          "type": "string"
        }
      ],
      "name": "submitData",
      "outputs": [],
      "stateMutability": "nonpayable",
      "type": "function"
    },
    {
      "inputs": [
        {
          "internalType": "address",
          "name": "provider",
          "type": "address"
        },
        {
          "internalType": "bool",
          "name": "isValid",
          "type": "bool"
        }
      ],
      "name": "verifyData",
      "outputs": [],
      "stateMutability": "nonpayable",
      "type": "function"
    }
  ],
  "bytecode": "0x608060405234801561000f575f80fd5b50335f806101000a81548173ffffffffffffffffffffffffffffffffffffffff021916908373ffffffffffffffffffffffffffffffffffffffff1602179055505f600281905550610f6c806100635f395ff3fe608060405234801561000f575f80fd5b5060043610610060575f3560e01c80630e2600161461006457806322bd8215146100805780635da40c471461009c578063780aac03146100ba5780638da5cb5b146100ec578063a2aac7ab1461010a575b5f80fd5b61007e60048036038101906100799190610723565b610126565b005b61009a60048036038101906100959190610783565b6102b0565b005b6100a4610474565b6040516100b191906107d9565b60405180910390f35b6100d460048036038101906100cf9190610723565b61047a565b6040516100e39392919061089a565b60405180910390f35b6100f4610551565b60405161010191906108d6565b60405180910390f35b610124600480360381019061011f9190610a1b565b610574565b005b5f8054906101000a900473ffffffffffffffffffffffffffffffffffffffff1673ffffffffffffffffffffffffffffffffffffffff163373ffffffffffffffffffffffffffffffffffffffff16146101b3576040517f08c379a00000000000000000000000000000000000000000000000000000000081526004016101aa90610ad2565b60405180910390fd5b60405180606001604052808273ffffffffffffffffffffffffffffffffffffffff16815260200160405180602001604052805f81525081526020015f151581525060015f8373ffffffffffffffffffffffffffffffffffffffff1673ffffffffffffffffffffffffffffffffffffffff1681526020019081526020015f205f820151815f015f6101000a81548173ffffffffffffffffffffffffffffffffffffffff021916908373ffffffffffffffffffffffffffffffffffffffff160217905550602082015181600101908161028a9190610cea565b506040820151816002015f6101000a81548160ff02191690831515021790555090505050565b5f8054906101000a900473ffffffffffffffffffffffffffffffffffffffff1673ffffffffffffffffffffffffffffffffffffffff163373ffffffffffffffffffffffffffffffffffffffff161461033d576040517f08c379a000000000000000000000000000000000000000000000000000000000815260040161033490610ad2565b60405180910390fd5b5f60015f8473ffffffffffffffffffffffffffffffffffffffff1673ffffffffffffffffffffffffffffffffffffffff1681526020019081526020015f20600101805461038990610b1d565b9050036103cb576040517f08c379a00000000000000000000000000000000000000000000000000000000081526004016103c290610e03565b60405180910390fd5b8060015f8473ffffffffffffffffffffffffffffffffffffffff1673ffffffffffffffffffffffffffffffffffffffff1681526020019081526020015f206002015f6101000a81548160ff0219169083151502179055508173ffffffffffffffffffffffffffffffffffffffff167f40008c9471e716345c2ed00e0aa4991c99c07f24455555e19b69728864a5f069826040516104689190610e21565b60405180910390a25050565b60025481565b6001602052805f5260405f205f91509050805f015f9054906101000a900473ffffffffffffffffffffffffffffffffffffffff16908060010180546104be90610b1d565b80601f01602080910402602001604051908101604052809291908181526020018280546104ea90610b1d565b80156105355780601f1061050c57610100808354040283529160200191610535565b820191905f5260205f20905b81548152906001019060200180831161051857829003601f168201915b505050505090806002015f9054906101000a900460ff16905083565b5f8054906101000a900473ffffffffffffffffffffffffffffffffffffffff1681565b5f60015f3373ffffffffffffffffffffffffffffffffffffffff1673ffffffffffffffffffffffffffffffffffffffff1681526020019081526020015f2060010180546105c090610b1d565b905014610602576040517f08c379a00000000000000000000000000000000000000000000000000000000081526004016105f990610e84565b60405180910390fd5b8060015f3373ffffffffffffffffffffffffffffffffffffffff1673ffffffffffffffffffffffffffffffffffffffff1681526020019081526020015f20600101908161064f9190610cea565b5060025f81548092919061066290610ecf565b91905055503373ffffffffffffffffffffffffffffffffffffffff167f609f5e609ad3d82219984fd111ae09ae5bb8c677c16ca76755508d98eaf52e36826040516106ad9190610f16565b60405180910390a250565b5f604051905090565b5f80fd5b5f80fd5b5f73ffffffffffffffffffffffffffffffffffffffff82169050919050565b5f6106f2826106c9565b9050919050565b610702816106e8565b811461070c575f80fd5b50565b5f8135905061071d816106f9565b92915050565b5f60208284031215610738576107376106c1565b5b5f6107458482850161070f565b91505092915050565b5f8115159050919050565b6107628161074e565b811461076c575f80fd5b50565b5f8135905061077d81610759565b92915050565b5f8060408385031215610799576107986106c1565b5b5f6107a68582860161070f565b92505060206107b78582860161076f565b9150509250929050565b5f819050919050565b6107d3816107c1565b82525050565b5f6020820190506107ec5f8301846107ca565b92915050565b6107fb816106e8565b82525050565b5f81519050919050565b5f82825260208201905092915050565b5f5b8381101561083857808201518184015260208101905061081d565b5f8484015250505050565b5f601f19601f8301169050919050565b5f61085d82610801565b610867818561080b565b935061087781856020860161081b565b61088081610843565b840191505092915050565b6108948161074e565b82525050565b5f6060820190506108ad5f8301866107f2565b81810360208301526108bf8185610853565b90506108ce604083018461088b565b949350505050565b5f6020820190506108e95f8301846107f2565b92915050565b5f80fd5b5f80fd5b7f4e487b71000000000000000000000000000000000000000000000000000000005f52604160045260245ffd5b61092d82610843565b810181811067ffffffffffffffff8211171561094c5761094b6108f7565b5b80604052505050565b5f61095e6106b8565b905061096a8282610924565b919050565b5f67ffffffffffffffff821115610989576109886108f7565b5b61099282610843565b9050602081019050919050565b828183375f83830152505050565b5f6109bf6109ba8461096f565b610955565b9050828152602081018484840111156109db576109da6108f3565b5b6109e684828561099f565b509392505050565b5f82601f830112610a0257610a016108ef565b5b8135610a128482602086016109ad565b91505092915050565b5f60208284031215610a3057610a2f6106c1565b5b5f82013567ffffffffffffffff811115610a4d57610a4c6106c5565b5b610a59848285016109ee565b91505092915050565b7f4f6e6c79206f776e65722063616e20706572666f726d207468697320616374695f8201527f6f6e000000000000000000000000000000000000000000000000000000000000602082015250565b5f610abc60228361080b565b9150610ac782610a62565b604082019050919050565b5f6020820190508181035f830152610ae981610ab0565b9050919050565b7f4e487b71000000000000000000000000000000000000000000000000000000005f52602260045260245ffd5b5f6002820490506001821680610b3457607f821691505b602082108103610b4757610b46610af0565b5b50919050565b5f819050815f5260205f209050919050565b5f6020601f8301049050919050565b5f82821b905092915050565b5f60088302610ba97fffffffffffffffffffffffffffffffffffffffffffffffffffffffffffffffff82610b6e565b610bb38683610b6e565b95508019841693508086168417925050509392505050565b5f819050919050565b5f610bee610be9610be4846107c1565b610bcb565b6107c1565b9050919050565b5f819050919050565b610c0783610bd4565b610c1b610c1382610bf5565b848454610b7a565b825550505050565b5f90565b610c2f610c23565b610c3a818484610bfe565b505050565b5b81811015610c5d57610c525f82610c27565b600181019050610c40565b5050565b601f821115610ca257610c7381610b4d565b610c7c84610b5f565b81016020851015610c8b578190505b610c9f610c9785610b5f565b830182610c3f565b50505b505050565b5f82821c905092915050565b5f610cc25f1984600802610ca7565b1980831691505092915050565b5f610cda8383610cb3565b9150826002028217905092915050565b610cf382610801565b67ffffffffffffffff811115610d0c57610d0b6108f7565b5b610d168254610b1d565b610d21828285610c61565b5f60209050601f831160018114610d52575f8415610d40578287015190505b610d4a8582610ccf565b865550610db1565b601f198416610d6086610b4d565b5f5b82811015610d8757848901518255600182019150602085019450602081019050610d62565b86831015610da45784890151610da0601f891682610cb3565b8355505b6001600288020188555050505b505050505050565b7f4e6f2064617461207375626d69747465640000000000000000000000000000005f82015250565b5f610ded60118361080b565b9150610df882610db9565b602082019050919050565b5f6020820190508181035f830152610e1a81610de1565b9050919050565b5f602082019050610e345f83018461088b565b92915050565b7f4461746120616c7265616479207375626d6974746564000000000000000000005f82015250565b5f610e6e60168361080b565b9150610e7982610e3a565b602082019050919050565b5f6020820190508181035f830152610e9b81610e62565b9050919050565b7f4e487b71000000000000000000000000000000000000000000000000000000005f52601160045260245ffd5b5f610ed9826107c1565b91507fffffffffffffffffffffffffffffffffffffffffffffffffffffffffffffffff8203610f0b57610f0a610ea2565b5b600182019050919050565b5f6020820190508181035f830152610f2e8184610853565b90509291505056fea264697066735822122026276325df07d141094ed5fb8af6029884dbd7812c81c3e9d5240eabf9c5e84e64736f6c63430008140033",
  "immutableReferences": {},
  "source": "// SPDX-License-Identifier: MIT\r\npragma solidity ^0.8.0;\r\n\r\ncontract Crowdsensing {\r\n    struct DataProvider {\r\n        address provider;\r\n        string encryptedData;\r\n        bool verified;\r\n    }\r\n\r\n    address public owner;\r\n    mapping(address => DataProvider) public dataProviders;\r\n    uint public dataCount;\r\n\r\n    event DataSubmitted(address indexed provider, string encryptedData);\r\n    event DataVerified(address indexed provider, bool verified);\r\n\r\n    constructor() {\r\n        owner = msg.sender;\r\n        dataCount = 0;\r\n    }\r\n\r\n    modifier onlyOwner() {\r\n        require(msg.sender == owner, \"Only owner can perform this action\");\r\n        _;\r\n    }\r\n\r\n    // Register a data provider\r\n    function registerProvider(address provider) public onlyOwner {\r\n        dataProviders[provider] = DataProvider(provider, \"\", false);\r\n    }\r\n\r\n    // Data providers submit encrypted data\r\n    function submitData(string memory encryptedData) public {\r\n        require(bytes(dataProviders[msg.sender].encryptedData).length == 0, \"Data already submitted\");\r\n        dataProviders[msg.sender].encryptedData = encryptedData;\r\n        dataCount++;\r\n        emit DataSubmitted(msg.sender, encryptedData);\r\n    }\r\n\r\n    // Owner verifies the data\r\n    function verifyData(address provider, bool isValid) public onlyOwner {\r\n        require(bytes(dataProviders[provider].encryptedData).length != 0, \"No data submitted\");\r\n        dataProviders[provider].verified = isValid;\r\n        emit DataVerified(provider, isValid);\r\n    }\r\n}\r\n",
  "sourcePath": "C:\\Users\\User\\Documents\\GitHub\\blockchain-crowdsensing\\contracts\\Crowdsensing.sol",
  "compiler": {
    "name": "solc",
    "version": "0.8.20+commit.a1b79de6.Emscripten.clang"
  },
  "schemaVersion": "3.4.16",
  "updatedAt": "2024-10-14T09:29:18.378Z",
  "networkType": "ethereum",
  "devdoc": {
    "kind": "dev",
    "methods": {},
    "version": 1
  },
  "userdoc": {
    "kind": "user",
    "methods": {},
    "version": 1
  }
}